{"contracts/ExampleSwap.sol":{"ExampleSwap":{"abi":[{"inputs":[{"internalType":"contract ISwapRouter","name":"_router","type":"address"}],"stateMutability":"nonpayable","type":"constructor"},{"inputs":[],"name":"USDC","outputs":[{"internalType":"address","name":"","type":"address"}],"stateMutability":"view","type":"function"},{"inputs":[],"name":"USDT","outputs":[{"internalType":"address","name":"","type":"address"}],"stateMutability":"view","type":"function"},{"inputs":[],"name":"WETH9","outputs":[{"internalType":"address","name":"","type":"address"}],"stateMutability":"view","type":"function"},{"inputs":[{"internalType":"uint256","name":"amountIn","type":"uint256"},{"internalType":"uint256","name":"amountOutMinimum","type":"uint256"}],"name":"exactInput","outputs":[{"internalType":"uint256","name":"amountOut","type":"uint256"}],"stateMutability":"nonpayable","type":"function"},{"inputs":[{"internalType":"uint256","name":"amountIn","type":"uint256"},{"internalType":"uint256","name":"amountOutMinimum","type":"uint256"}],"name":"exactInputSingle","outputs":[{"internalType":"uint256","name":"amountOut","type":"uint256"}],"stateMutability":"nonpayable","type":"function"},{"inputs":[{"internalType":"uint256","name":"amountOut","type":"uint256"},{"internalType":"uint256","name":"amountInMaximum","type":"uint256"}],"name":"exactOutput","outputs":[{"internalType":"uint256","name":"amountIn","type":"uint256"}],"stateMutability":"nonpayable","type":"function"},{"inputs":[{"internalType":"uint256","name":"amountOut","type":"uint256"},{"internalType":"uint256","name":"amountInMaximum","type":"uint256"}],"name":"exactOutputSingle","outputs":[{"internalType":"uint256","name":"amountIn","type":"uint256"}],"stateMutability":"nonpayable","type":"function"},{"inputs":[],"name":"router","outputs":[{"internalType":"contract ISwapRouter","name":"","type":"address"}],"stateMutability":"view","type":"function"}],"evm":{"bytecode":{"linkReferences":{},"object":"60a060405234801561001057600080fd5b5060405161125638038061125683398101604081905261002f91610040565b6001600160a01b0316608052610070565b60006020828403121561005257600080fd5b81516001600160a01b038116811461006957600080fd5b9392505050565b6080516111856100d160003960008181610167015281816101c901528181610319015281816103e801528181610538015281816105e2015281816106760152818161073d015281816107e701528181610875015261093c01526111856000f3fe608060405234801561001057600080fd5b50600436106100885760003560e01c806389a302711161005b57806389a3027114610119578063c54e44eb14610134578063ca15ee471461014f578063f887ea401461016257600080fd5b8063151037d61461008d57806337be506a146100b35780634aa4a4fc146100c6578063814b3e9114610106575b600080fd5b6100a061009b366004610f17565b610189565b6040519081526020015b60405180910390f35b6100a06100c1366004610f17565b6103a8565b6100e17382af49447d8a07e3bd95bd0d56f35241523fbab181565b60405173ffffffffffffffffffffffffffffffffffffffff90911681526020016100aa565b6100a0610114366004610f17565b610638565b6100e173ff970a61a04b1ca14834a43f5de4533ebddb5cc881565b6100e173fd086bc7cd5c481dcc9c85ebe478a1c0b69fcbb981565b6100a061015d366004610f17565b610837565b6100e17f000000000000000000000000000000000000000000000000000000000000000081565b60006101ab73ff970a61a04b1ca14834a43f5de4533ebddb5cc83330866109ca565b600560016101ee73ff970a61a04b1ca14834a43f5de4533ebddb5cc87f000000000000000000000000000000000000000000000000000000000000000087610aac565b6040805160a0810182527fff970a61a04b1ca14834a43f5de4533ebddb5cc800000000000000000000000060c082015260f883901b7fff000000000000000000000000000000000000000000000000000000000000001660d4820181905260e885901b60d583018190527ffd086bc7cd5c481dcc9c85ebe478a1c0b69fcbb900000000000000000000000060d884015260ec83019190915260ed8201527f82af49447d8a07e3bd95bd0d56f35241523fbab100000000000000000000000060f0820152815160e48183030181526101048201835281523360208201524281830152606081018790526080810186905290517fc04b8d5900000000000000000000000000000000000000000000000000000000815273ffffffffffffffffffffffffffffffffffffffff7f0000000000000000000000000000000000000000000000000000000000000000169163c04b8d599161034d919060040161100e565b602060405180830381600087803b15801561036757600080fd5b505af115801561037b573d6000803e3d6000fd5b505050506040513d601f19601f8201168201806040525081019061039f9190611028565b95945050505050565b60006103ca7382af49447d8a07e3bd95bd0d56f35241523fbab13330856109ca565b6005600161040d7382af49447d8a07e3bd95bd0d56f35241523fbab17f000000000000000000000000000000000000000000000000000000000000000086610aac565b6040805160a0810182527fff970a61a04b1ca14834a43f5de4533ebddb5cc800000000000000000000000060c082015260f883901b7fff000000000000000000000000000000000000000000000000000000000000001660d4820181905260e885901b60d583018190527ffd086bc7cd5c481dcc9c85ebe478a1c0b69fcbb900000000000000000000000060d884015260ec83019190915260ed8201527f82af49447d8a07e3bd95bd0d56f35241523fbab100000000000000000000000060f0820152815160e48183030181526101048201835281523360208201524281830152606081018790526080810186905290517ff28c049800000000000000000000000000000000000000000000000000000000815273ffffffffffffffffffffffffffffffffffffffff7f0000000000000000000000000000000000000000000000000000000000000000169163f28c04989161056c919060040161100e565b602060405180830381600087803b15801561058657600080fd5b505af115801561059a573d6000803e3d6000fd5b505050506040513d601f19601f820116820180604052508101906105be9190611028565b925083831015610630576106087382af49447d8a07e3bd95bd0d56f35241523fbab17f00000000000000000000000000000000000000000000000000000000000000006000610aac565b6106307382af49447d8a07e3bd95bd0d56f35241523fbab13361062b8688611041565b610c47565b505092915050565b600061065a7382af49447d8a07e3bd95bd0d56f35241523fbab13330856109ca565b600561069b7382af49447d8a07e3bd95bd0d56f35241523fbab17f000000000000000000000000000000000000000000000000000000000000000085610aac565b60408051610100810182527382af49447d8a07e3bd95bd0d56f35241523fbab1815273ff970a61a04b1ca14834a43f5de4533ebddb5cc86020820152600283900b8183015233606082015242608082015260a0810186905260c08101859052600060e082015290517fc714e83800000000000000000000000000000000000000000000000000000000815273ffffffffffffffffffffffffffffffffffffffff7f0000000000000000000000000000000000000000000000000000000000000000169163c714e83891610771919060040161107f565b602060405180830381600087803b15801561078b57600080fd5b505af115801561079f573d6000803e3d6000fd5b505050506040513d601f19601f820116820180604052508101906107c39190611028565b9150828210156108305761080d7382af49447d8a07e3bd95bd0d56f35241523fbab17f00000000000000000000000000000000000000000000000000000000000000006000610aac565b6108307382af49447d8a07e3bd95bd0d56f35241523fbab13361062b8587611041565b5092915050565b600061085973ff970a61a04b1ca14834a43f5de4533ebddb5cc83330866109ca565b600561089a73ff970a61a04b1ca14834a43f5de4533ebddb5cc87f000000000000000000000000000000000000000000000000000000000000000086610aac565b604080516101008101825273ff970a61a04b1ca14834a43f5de4533ebddb5cc881527382af49447d8a07e3bd95bd0d56f35241523fbab16020820152600283900b8183015233606082015242608082015260a0810186905260c08101859052600060e082015290517fa026383e00000000000000000000000000000000000000000000000000000000815273ffffffffffffffffffffffffffffffffffffffff7f0000000000000000000000000000000000000000000000000000000000000000169163a026383e91610970919060040161107f565b602060405180830381600087803b15801561098a57600080fd5b505af115801561099e573d6000803e3d6000fd5b505050506040513d601f19601f820116820180604052508101906109c29190611028565b949350505050565b60405173ffffffffffffffffffffffffffffffffffffffff80851660248301528316604482015260648101829052610aa69085907f23b872dd00000000000000000000000000000000000000000000000000000000906084015b604080517fffffffffffffffffffffffffffffffffffffffffffffffffffffffffffffffe08184030181529190526020810180517bffffffffffffffffffffffffffffffffffffffffffffffffffffffff167fffffffff0000000000000000000000000000000000000000000000000000000090931692909217909152610c9d565b50505050565b801580610b5b57506040517fdd62ed3e00000000000000000000000000000000000000000000000000000000815230600482015273ffffffffffffffffffffffffffffffffffffffff838116602483015284169063dd62ed3e9060440160206040518083038186803b158015610b2157600080fd5b505afa158015610b35573d6000803e3d6000fd5b505050506040513d601f19601f82011682018060405250810190610b599190611028565b155b610bec576040517f08c379a000000000000000000000000000000000000000000000000000000000815260206004820152603660248201527f5361666545524332303a20617070726f76652066726f6d206e6f6e2d7a65726f60448201527f20746f206e6f6e2d7a65726f20616c6c6f77616e63650000000000000000000060648201526084015b60405180910390fd5b60405173ffffffffffffffffffffffffffffffffffffffff8316602482015260448101829052610c429084907f095ea7b30000000000000000000000000000000000000000000000000000000090606401610a24565b505050565b60405173ffffffffffffffffffffffffffffffffffffffff8316602482015260448101829052610c429084907fa9059cbb0000000000000000000000000000000000000000000000000000000090606401610a24565b6000610cff826040518060400160405280602081526020017f5361666545524332303a206c6f772d6c6576656c2063616c6c206661696c65648152508573ffffffffffffffffffffffffffffffffffffffff16610da99092919063ffffffff16565b805190915015610c425780806020019051810190610d1d91906110fe565b610c42576040517f08c379a000000000000000000000000000000000000000000000000000000000815260206004820152602a60248201527f5361666545524332303a204552433230206f7065726174696f6e20646964206e60448201527f6f742073756363656564000000000000000000000000000000000000000000006064820152608401610be3565b60606109c28484600085856000808673ffffffffffffffffffffffffffffffffffffffff168587604051610ddd9190611120565b60006040518083038185875af1925050503d8060008114610e1a576040519150601f19603f3d011682016040523d82523d6000602084013e610e1f565b606091505b5091509150610e3087838387610e3b565b979650505050505050565b60608315610ece578251610ec75773ffffffffffffffffffffffffffffffffffffffff85163b610ec7576040517f08c379a000000000000000000000000000000000000000000000000000000000815260206004820152601d60248201527f416464726573733a2063616c6c20746f206e6f6e2d636f6e74726163740000006044820152606401610be3565b50816109c2565b6109c28383815115610ee35781518083602001fd5b806040517f08c379a0000000000000000000000000000000000000000000000000000000008152600401610be3919061113c565b60008060408385031215610f2a57600080fd5b50508035926020909101359150565b60005b83811015610f54578181015183820152602001610f3c565b83811115610aa65750506000910152565b60008151808452610f7d816020860160208601610f39565b601f017fffffffffffffffffffffffffffffffffffffffffffffffffffffffffffffffe0169290920160200192915050565b6000815160a08452610fc460a0850182610f65565b905073ffffffffffffffffffffffffffffffffffffffff60208401511660208501526040830151604085015260608301516060850152608083015160808501528091505092915050565b6020815260006110216020830184610faf565b9392505050565b60006020828403121561103a57600080fd5b5051919050565b60008282101561107a577f4e487b7100000000000000000000000000000000000000000000000000000000600052601160045260246000fd5b500390565b61010081016110f8828473ffffffffffffffffffffffffffffffffffffffff808251168352806020830151166020840152604082015160020b60408401528060608301511660608401526080820151608084015260a082015160a084015260c082015160c08401528060e08301511660e0840152505050565b92915050565b60006020828403121561111057600080fd5b8151801515811461102157600080fd5b60008251611132818460208701610f39565b9190910192915050565b6020815260006110216020830184610f6556fea264697066735822122030b5f5879c9b030c5fe5a18cbcb816511577a39a7b9fa1fb000c45d79d2b6b1564736f6c63430008090033","opcodes":"PUSH1 0xA0 PUSH1 0x40 MSTORE CALLVALUE DUP1 ISZERO PUSH2 0x10 JUMPI PUSH1 0x0 DUP1 REVERT JUMPDEST POP PUSH1 0x40 MLOAD PUSH2 0x1256 CODESIZE SUB DUP1 PUSH2 0x1256 DUP4 CODECOPY DUP2 ADD PUSH1 0x40 DUP2 SWAP1 MSTORE PUSH2 0x2F SWAP2 PUSH2 0x40 JUMP JUMPDEST PUSH1 0x1 PUSH1 0x1 PUSH1 0xA0 SHL SUB AND PUSH1 0x80 MSTORE PUSH2 0x70 JUMP JUMPDEST PUSH1 0x0 PUSH1 0x20 DUP3 DUP5 SUB SLT ISZERO PUSH2 0x52 JUMPI PUSH1 0x0 DUP1 REVERT JUMPDEST DUP2 MLOAD PUSH1 0x1 PUSH1 0x1 PUSH1 0xA0 SHL SUB DUP2 AND DUP2 EQ PUSH2 0x69 JUMPI PUSH1 0x0 DUP1 REVERT JUMPDEST SWAP4 SWAP3 POP POP POP JUMP JUMPDEST PUSH1 0x80 MLOAD PUSH2 0x1185 PUSH2 0xD1 PUSH1 0x0 CODECOPY PUSH1 0x0 DUP2 DUP2 PUSH2 0x167 ADD MSTORE DUP2 DUP2 PUSH2 0x1C9 ADD MSTORE DUP2 DUP2 PUSH2 0x319 ADD MSTORE DUP2 DUP2 PUSH2 0x3E8 ADD MSTORE DUP2 DUP2 PUSH2 0x538 ADD MSTORE DUP2 DUP2 PUSH2 0x5E2 ADD MSTORE DUP2 DUP2 PUSH2 0x676 ADD MSTORE DUP2 DUP2 PUSH2 0x73D ADD MSTORE DUP2 DUP2 PUSH2 0x7E7 ADD MSTORE DUP2 DUP2 PUSH2 0x875 ADD MSTORE PUSH2 0x93C ADD MSTORE PUSH2 0x1185 PUSH1 0x0 RETURN INVALID PUSH1 0x80 PUSH1 0x40 MSTORE CALLVALUE DUP1 ISZERO PUSH2 0x10 JUMPI PUSH1 0x0 DUP1 REVERT JUMPDEST POP PUSH1 0x4 CALLDATASIZE LT PUSH2 0x88 JUMPI PUSH1 0x0 CALLDATALOAD PUSH1 0xE0 SHR DUP1 PUSH4 0x89A30271 GT PUSH2 0x5B JUMPI DUP1 PUSH4 0x89A30271 EQ PUSH2 0x119 JUMPI DUP1 PUSH4 0xC54E44EB EQ PUSH2 0x134 JUMPI DUP1 PUSH4 0xCA15EE47 EQ PUSH2 0x14F JUMPI DUP1 PUSH4 0xF887EA40 EQ PUSH2 0x162 JUMPI PUSH1 0x0 DUP1 REVERT JUMPDEST DUP1 PUSH4 0x151037D6 EQ PUSH2 0x8D JUMPI DUP1 PUSH4 0x37BE506A EQ PUSH2 0xB3 JUMPI DUP1 PUSH4 0x4AA4A4FC EQ PUSH2 0xC6 JUMPI DUP1 PUSH4 0x814B3E91 EQ PUSH2 0x106 JUMPI JUMPDEST PUSH1 0x0 DUP1 REVERT JUMPDEST PUSH2 0xA0 PUSH2 0x9B CALLDATASIZE PUSH1 0x4 PUSH2 0xF17 JUMP JUMPDEST PUSH2 0x189 JUMP JUMPDEST PUSH1 0x40 MLOAD SWAP1 DUP2 MSTORE PUSH1 0x20 ADD JUMPDEST PUSH1 0x40 MLOAD DUP1 SWAP2 SUB SWAP1 RETURN JUMPDEST PUSH2 0xA0 PUSH2 0xC1 CALLDATASIZE PUSH1 0x4 PUSH2 0xF17 JUMP JUMPDEST PUSH2 0x3A8 JUMP JUMPDEST PUSH2 0xE1 PUSH20 0x82AF49447D8A07E3BD95BD0D56F35241523FBAB1 DUP2 JUMP JUMPDEST PUSH1 0x40 MLOAD PUSH20 0xFFFFFFFFFFFFFFFFFFFFFFFFFFFFFFFFFFFFFFFF SWAP1 SWAP2 AND DUP2 MSTORE PUSH1 0x20 ADD PUSH2 0xAA JUMP JUMPDEST PUSH2 0xA0 PUSH2 0x114 CALLDATASIZE PUSH1 0x4 PUSH2 0xF17 JUMP JUMPDEST PUSH2 0x638 JUMP JUMPDEST PUSH2 0xE1 PUSH20 0xFF970A61A04B1CA14834A43F5DE4533EBDDB5CC8 DUP2 JUMP JUMPDEST PUSH2 0xE1 PUSH20 0xFD086BC7CD5C481DCC9C85EBE478A1C0B69FCBB9 DUP2 JUMP JUMPDEST PUSH2 0xA0 PUSH2 0x15D CALLDATASIZE PUSH1 0x4 PUSH2 0xF17 JUMP JUMPDEST PUSH2 0x837 JUMP JUMPDEST PUSH2 0xE1 PUSH32 0x0 DUP2 JUMP JUMPDEST PUSH1 0x0 PUSH2 0x1AB PUSH20 0xFF970A61A04B1CA14834A43F5DE4533EBDDB5CC8 CALLER ADDRESS DUP7 PUSH2 0x9CA JUMP JUMPDEST PUSH1 0x5 PUSH1 0x1 PUSH2 0x1EE PUSH20 0xFF970A61A04B1CA14834A43F5DE4533EBDDB5CC8 PUSH32 0x0 DUP8 PUSH2 0xAAC JUMP JUMPDEST PUSH1 0x40 DUP1 MLOAD PUSH1 0xA0 DUP2 ADD DUP3 MSTORE PUSH32 0xFF970A61A04B1CA14834A43F5DE4533EBDDB5CC8000000000000000000000000 PUSH1 0xC0 DUP3 ADD MSTORE PUSH1 0xF8 DUP4 SWAP1 SHL PUSH32 0xFF00000000000000000000000000000000000000000000000000000000000000 AND PUSH1 0xD4 DUP3 ADD DUP2 SWAP1 MSTORE PUSH1 0xE8 DUP6 SWAP1 SHL PUSH1 0xD5 DUP4 ADD DUP2 SWAP1 MSTORE PUSH32 0xFD086BC7CD5C481DCC9C85EBE478A1C0B69FCBB9000000000000000000000000 PUSH1 0xD8 DUP5 ADD MSTORE PUSH1 0xEC DUP4 ADD SWAP2 SWAP1 SWAP2 MSTORE PUSH1 0xED DUP3 ADD MSTORE PUSH32 0x82AF49447D8A07E3BD95BD0D56F35241523FBAB1000000000000000000000000 PUSH1 0xF0 DUP3 ADD MSTORE DUP2 MLOAD PUSH1 0xE4 DUP2 DUP4 SUB ADD DUP2 MSTORE PUSH2 0x104 DUP3 ADD DUP4 MSTORE DUP2 MSTORE CALLER PUSH1 0x20 DUP3 ADD MSTORE TIMESTAMP DUP2 DUP4 ADD MSTORE PUSH1 0x60 DUP2 ADD DUP8 SWAP1 MSTORE PUSH1 0x80 DUP2 ADD DUP7 SWAP1 MSTORE SWAP1 MLOAD PUSH32 0xC04B8D5900000000000000000000000000000000000000000000000000000000 DUP2 MSTORE PUSH20 0xFFFFFFFFFFFFFFFFFFFFFFFFFFFFFFFFFFFFFFFF PUSH32 0x0 AND SWAP2 PUSH4 0xC04B8D59 SWAP2 PUSH2 0x34D SWAP2 SWAP1 PUSH1 0x4 ADD PUSH2 0x100E JUMP JUMPDEST PUSH1 0x20 PUSH1 0x40 MLOAD DUP1 DUP4 SUB DUP2 PUSH1 0x0 DUP8 DUP1 EXTCODESIZE ISZERO DUP1 ISZERO PUSH2 0x367 JUMPI PUSH1 0x0 DUP1 REVERT JUMPDEST POP GAS CALL ISZERO DUP1 ISZERO PUSH2 0x37B JUMPI RETURNDATASIZE PUSH1 0x0 DUP1 RETURNDATACOPY RETURNDATASIZE PUSH1 0x0 REVERT JUMPDEST POP POP POP POP PUSH1 0x40 MLOAD RETURNDATASIZE PUSH1 0x1F NOT PUSH1 0x1F DUP3 ADD AND DUP3 ADD DUP1 PUSH1 0x40 MSTORE POP DUP2 ADD SWAP1 PUSH2 0x39F SWAP2 SWAP1 PUSH2 0x1028 JUMP JUMPDEST SWAP6 SWAP5 POP POP POP POP POP JUMP JUMPDEST PUSH1 0x0 PUSH2 0x3CA PUSH20 0x82AF49447D8A07E3BD95BD0D56F35241523FBAB1 CALLER ADDRESS DUP6 PUSH2 0x9CA JUMP JUMPDEST PUSH1 0x5 PUSH1 0x1 PUSH2 0x40D PUSH20 0x82AF49447D8A07E3BD95BD0D56F35241523FBAB1 PUSH32 0x0 DUP7 PUSH2 0xAAC JUMP JUMPDEST PUSH1 0x40 DUP1 MLOAD PUSH1 0xA0 DUP2 ADD DUP3 MSTORE PUSH32 0xFF970A61A04B1CA14834A43F5DE4533EBDDB5CC8000000000000000000000000 PUSH1 0xC0 DUP3 ADD MSTORE PUSH1 0xF8 DUP4 SWAP1 SHL PUSH32 0xFF00000000000000000000000000000000000000000000000000000000000000 AND PUSH1 0xD4 DUP3 ADD DUP2 SWAP1 MSTORE PUSH1 0xE8 DUP6 SWAP1 SHL PUSH1 0xD5 DUP4 ADD DUP2 SWAP1 MSTORE PUSH32 0xFD086BC7CD5C481DCC9C85EBE478A1C0B69FCBB9000000000000000000000000 PUSH1 0xD8 DUP5 ADD MSTORE PUSH1 0xEC DUP4 ADD SWAP2 SWAP1 SWAP2 MSTORE PUSH1 0xED DUP3 ADD MSTORE PUSH32 0x82AF49447D8A07E3BD95BD0D56F35241523FBAB1000000000000000000000000 PUSH1 0xF0 DUP3 ADD MSTORE DUP2 MLOAD PUSH1 0xE4 DUP2 DUP4 SUB ADD DUP2 MSTORE PUSH2 0x104 DUP3 ADD DUP4 MSTORE DUP2 MSTORE CALLER PUSH1 0x20 DUP3 ADD MSTORE TIMESTAMP DUP2 DUP4 ADD MSTORE PUSH1 0x60 DUP2 ADD DUP8 SWAP1 MSTORE PUSH1 0x80 DUP2 ADD DUP7 SWAP1 MSTORE SWAP1 MLOAD PUSH32 0xF28C049800000000000000000000000000000000000000000000000000000000 DUP2 MSTORE PUSH20 0xFFFFFFFFFFFFFFFFFFFFFFFFFFFFFFFFFFFFFFFF PUSH32 0x0 AND SWAP2 PUSH4 0xF28C0498 SWAP2 PUSH2 0x56C SWAP2 SWAP1 PUSH1 0x4 ADD PUSH2 0x100E JUMP JUMPDEST PUSH1 0x20 PUSH1 0x40 MLOAD DUP1 DUP4 SUB DUP2 PUSH1 0x0 DUP8 DUP1 EXTCODESIZE ISZERO DUP1 ISZERO PUSH2 0x586 JUMPI PUSH1 0x0 DUP1 REVERT JUMPDEST POP GAS CALL ISZERO DUP1 ISZERO PUSH2 0x59A JUMPI RETURNDATASIZE PUSH1 0x0 DUP1 RETURNDATACOPY RETURNDATASIZE PUSH1 0x0 REVERT JUMPDEST POP POP POP POP PUSH1 0x40 MLOAD RETURNDATASIZE PUSH1 0x1F NOT PUSH1 0x1F DUP3 ADD AND DUP3 ADD DUP1 PUSH1 0x40 MSTORE POP DUP2 ADD SWAP1 PUSH2 0x5BE SWAP2 SWAP1 PUSH2 0x1028 JUMP JUMPDEST SWAP3 POP DUP4 DUP4 LT ISZERO PUSH2 0x630 JUMPI PUSH2 0x608 PUSH20 0x82AF49447D8A07E3BD95BD0D56F35241523FBAB1 PUSH32 0x0 PUSH1 0x0 PUSH2 0xAAC JUMP JUMPDEST PUSH2 0x630 PUSH20 0x82AF49447D8A07E3BD95BD0D56F35241523FBAB1 CALLER PUSH2 0x62B DUP7 DUP9 PUSH2 0x1041 JUMP JUMPDEST PUSH2 0xC47 JUMP JUMPDEST POP POP SWAP3 SWAP2 POP POP JUMP JUMPDEST PUSH1 0x0 PUSH2 0x65A PUSH20 0x82AF49447D8A07E3BD95BD0D56F35241523FBAB1 CALLER ADDRESS DUP6 PUSH2 0x9CA JUMP JUMPDEST PUSH1 0x5 PUSH2 0x69B PUSH20 0x82AF49447D8A07E3BD95BD0D56F35241523FBAB1 PUSH32 0x0 DUP6 PUSH2 0xAAC JUMP JUMPDEST PUSH1 0x40 DUP1 MLOAD PUSH2 0x100 DUP2 ADD DUP3 MSTORE PUSH20 0x82AF49447D8A07E3BD95BD0D56F35241523FBAB1 DUP2 MSTORE PUSH20 0xFF970A61A04B1CA14834A43F5DE4533EBDDB5CC8 PUSH1 0x20 DUP3 ADD MSTORE PUSH1 0x2 DUP4 SWAP1 SIGNEXTEND DUP2 DUP4 ADD MSTORE CALLER PUSH1 0x60 DUP3 ADD MSTORE TIMESTAMP PUSH1 0x80 DUP3 ADD MSTORE PUSH1 0xA0 DUP2 ADD DUP7 SWAP1 MSTORE PUSH1 0xC0 DUP2 ADD DUP6 SWAP1 MSTORE PUSH1 0x0 PUSH1 0xE0 DUP3 ADD MSTORE SWAP1 MLOAD PUSH32 0xC714E83800000000000000000000000000000000000000000000000000000000 DUP2 MSTORE PUSH20 0xFFFFFFFFFFFFFFFFFFFFFFFFFFFFFFFFFFFFFFFF PUSH32 0x0 AND SWAP2 PUSH4 0xC714E838 SWAP2 PUSH2 0x771 SWAP2 SWAP1 PUSH1 0x4 ADD PUSH2 0x107F JUMP JUMPDEST PUSH1 0x20 PUSH1 0x40 MLOAD DUP1 DUP4 SUB DUP2 PUSH1 0x0 DUP8 DUP1 EXTCODESIZE ISZERO DUP1 ISZERO PUSH2 0x78B JUMPI PUSH1 0x0 DUP1 REVERT JUMPDEST POP GAS CALL ISZERO DUP1 ISZERO PUSH2 0x79F JUMPI RETURNDATASIZE PUSH1 0x0 DUP1 RETURNDATACOPY RETURNDATASIZE PUSH1 0x0 REVERT JUMPDEST POP POP POP POP PUSH1 0x40 MLOAD RETURNDATASIZE PUSH1 0x1F NOT PUSH1 0x1F DUP3 ADD AND DUP3 ADD DUP1 PUSH1 0x40 MSTORE POP DUP2 ADD SWAP1 PUSH2 0x7C3 SWAP2 SWAP1 PUSH2 0x1028 JUMP JUMPDEST SWAP2 POP DUP3 DUP3 LT ISZERO PUSH2 0x830 JUMPI PUSH2 0x80D PUSH20 0x82AF49447D8A07E3BD95BD0D56F35241523FBAB1 PUSH32 0x0 PUSH1 0x0 PUSH2 0xAAC JUMP JUMPDEST PUSH2 0x830 PUSH20 0x82AF49447D8A07E3BD95BD0D56F35241523FBAB1 CALLER PUSH2 0x62B DUP6 DUP8 PUSH2 0x1041 JUMP JUMPDEST POP SWAP3 SWAP2 POP POP JUMP JUMPDEST PUSH1 0x0 PUSH2 0x859 PUSH20 0xFF970A61A04B1CA14834A43F5DE4533EBDDB5CC8 CALLER ADDRESS DUP7 PUSH2 0x9CA JUMP JUMPDEST PUSH1 0x5 PUSH2 0x89A PUSH20 0xFF970A61A04B1CA14834A43F5DE4533EBDDB5CC8 PUSH32 0x0 DUP7 PUSH2 0xAAC JUMP JUMPDEST PUSH1 0x40 DUP1 MLOAD PUSH2 0x100 DUP2 ADD DUP3 MSTORE PUSH20 0xFF970A61A04B1CA14834A43F5DE4533EBDDB5CC8 DUP2 MSTORE PUSH20 0x82AF49447D8A07E3BD95BD0D56F35241523FBAB1 PUSH1 0x20 DUP3 ADD MSTORE PUSH1 0x2 DUP4 SWAP1 SIGNEXTEND DUP2 DUP4 ADD MSTORE CALLER PUSH1 0x60 DUP3 ADD MSTORE TIMESTAMP PUSH1 0x80 DUP3 ADD MSTORE PUSH1 0xA0 DUP2 ADD DUP7 SWAP1 MSTORE PUSH1 0xC0 DUP2 ADD DUP6 SWAP1 MSTORE PUSH1 0x0 PUSH1 0xE0 DUP3 ADD MSTORE SWAP1 MLOAD PUSH32 0xA026383E00000000000000000000000000000000000000000000000000000000 DUP2 MSTORE PUSH20 0xFFFFFFFFFFFFFFFFFFFFFFFFFFFFFFFFFFFFFFFF PUSH32 0x0 AND SWAP2 PUSH4 0xA026383E SWAP2 PUSH2 0x970 SWAP2 SWAP1 PUSH1 0x4 ADD PUSH2 0x107F JUMP JUMPDEST PUSH1 0x20 PUSH1 0x40 MLOAD DUP1 DUP4 SUB DUP2 PUSH1 0x0 DUP8 DUP1 EXTCODESIZE ISZERO DUP1 ISZERO PUSH2 0x98A JUMPI PUSH1 0x0 DUP1 REVERT JUMPDEST POP GAS CALL ISZERO DUP1 ISZERO PUSH2 0x99E JUMPI RETURNDATASIZE PUSH1 0x0 DUP1 RETURNDATACOPY RETURNDATASIZE PUSH1 0x0 REVERT JUMPDEST POP POP POP POP PUSH1 0x40 MLOAD RETURNDATASIZE PUSH1 0x1F NOT PUSH1 0x1F DUP3 ADD AND DUP3 ADD DUP1 PUSH1 0x40 MSTORE POP DUP2 ADD SWAP1 PUSH2 0x9C2 SWAP2 SWAP1 PUSH2 0x1028 JUMP JUMPDEST SWAP5 SWAP4 POP POP POP POP JUMP JUMPDEST PUSH1 0x40 MLOAD PUSH20 0xFFFFFFFFFFFFFFFFFFFFFFFFFFFFFFFFFFFFFFFF DUP1 DUP6 AND PUSH1 0x24 DUP4 ADD MSTORE DUP4 AND PUSH1 0x44 DUP3 ADD MSTORE PUSH1 0x64 DUP2 ADD DUP3 SWAP1 MSTORE PUSH2 0xAA6 SWAP1 DUP6 SWAP1 PUSH32 0x23B872DD00000000000000000000000000000000000000000000000000000000 SWAP1 PUSH1 0x84 ADD JUMPDEST PUSH1 0x40 DUP1 MLOAD PUSH32 0xFFFFFFFFFFFFFFFFFFFFFFFFFFFFFFFFFFFFFFFFFFFFFFFFFFFFFFFFFFFFFFE0 DUP2 DUP5 SUB ADD DUP2 MSTORE SWAP2 SWAP1 MSTORE PUSH1 0x20 DUP2 ADD DUP1 MLOAD PUSH28 0xFFFFFFFFFFFFFFFFFFFFFFFFFFFFFFFFFFFFFFFFFFFFFFFFFFFFFFFF AND PUSH32 0xFFFFFFFF00000000000000000000000000000000000000000000000000000000 SWAP1 SWAP4 AND SWAP3 SWAP1 SWAP3 OR SWAP1 SWAP2 MSTORE PUSH2 0xC9D JUMP JUMPDEST POP POP POP POP JUMP JUMPDEST DUP1 ISZERO DUP1 PUSH2 0xB5B JUMPI POP PUSH1 0x40 MLOAD PUSH32 0xDD62ED3E00000000000000000000000000000000000000000000000000000000 DUP2 MSTORE ADDRESS PUSH1 0x4 DUP3 ADD MSTORE PUSH20 0xFFFFFFFFFFFFFFFFFFFFFFFFFFFFFFFFFFFFFFFF DUP4 DUP2 AND PUSH1 0x24 DUP4 ADD MSTORE DUP5 AND SWAP1 PUSH4 0xDD62ED3E SWAP1 PUSH1 0x44 ADD PUSH1 0x20 PUSH1 0x40 MLOAD DUP1 DUP4 SUB DUP2 DUP7 DUP1 EXTCODESIZE ISZERO DUP1 ISZERO PUSH2 0xB21 JUMPI PUSH1 0x0 DUP1 REVERT JUMPDEST POP GAS STATICCALL ISZERO DUP1 ISZERO PUSH2 0xB35 JUMPI RETURNDATASIZE PUSH1 0x0 DUP1 RETURNDATACOPY RETURNDATASIZE PUSH1 0x0 REVERT JUMPDEST POP POP POP POP PUSH1 0x40 MLOAD RETURNDATASIZE PUSH1 0x1F NOT PUSH1 0x1F DUP3 ADD AND DUP3 ADD DUP1 PUSH1 0x40 MSTORE POP DUP2 ADD SWAP1 PUSH2 0xB59 SWAP2 SWAP1 PUSH2 0x1028 JUMP JUMPDEST ISZERO JUMPDEST PUSH2 0xBEC JUMPI PUSH1 0x40 MLOAD PUSH32 0x8C379A000000000000000000000000000000000000000000000000000000000 DUP2 MSTORE PUSH1 0x20 PUSH1 0x4 DUP3 ADD MSTORE PUSH1 0x36 PUSH1 0x24 DUP3 ADD MSTORE PUSH32 0x5361666545524332303A20617070726F76652066726F6D206E6F6E2D7A65726F PUSH1 0x44 DUP3 ADD MSTORE PUSH32 0x20746F206E6F6E2D7A65726F20616C6C6F77616E636500000000000000000000 PUSH1 0x64 DUP3 ADD MSTORE PUSH1 0x84 ADD JUMPDEST PUSH1 0x40 MLOAD DUP1 SWAP2 SUB SWAP1 REVERT JUMPDEST PUSH1 0x40 MLOAD PUSH20 0xFFFFFFFFFFFFFFFFFFFFFFFFFFFFFFFFFFFFFFFF DUP4 AND PUSH1 0x24 DUP3 ADD MSTORE PUSH1 0x44 DUP2 ADD DUP3 SWAP1 MSTORE PUSH2 0xC42 SWAP1 DUP5 SWAP1 PUSH32 0x95EA7B300000000000000000000000000000000000000000000000000000000 SWAP1 PUSH1 0x64 ADD PUSH2 0xA24 JUMP JUMPDEST POP POP POP JUMP JUMPDEST PUSH1 0x40 MLOAD PUSH20 0xFFFFFFFFFFFFFFFFFFFFFFFFFFFFFFFFFFFFFFFF DUP4 AND PUSH1 0x24 DUP3 ADD MSTORE PUSH1 0x44 DUP2 ADD DUP3 SWAP1 MSTORE PUSH2 0xC42 SWAP1 DUP5 SWAP1 PUSH32 0xA9059CBB00000000000000000000000000000000000000000000000000000000 SWAP1 PUSH1 0x64 ADD PUSH2 0xA24 JUMP JUMPDEST PUSH1 0x0 PUSH2 0xCFF DUP3 PUSH1 0x40 MLOAD DUP1 PUSH1 0x40 ADD PUSH1 0x40 MSTORE DUP1 PUSH1 0x20 DUP2 MSTORE PUSH1 0x20 ADD PUSH32 0x5361666545524332303A206C6F772D6C6576656C2063616C6C206661696C6564 DUP2 MSTORE POP DUP6 PUSH20 0xFFFFFFFFFFFFFFFFFFFFFFFFFFFFFFFFFFFFFFFF AND PUSH2 0xDA9 SWAP1 SWAP3 SWAP2 SWAP1 PUSH4 0xFFFFFFFF AND JUMP JUMPDEST DUP1 MLOAD SWAP1 SWAP2 POP ISZERO PUSH2 0xC42 JUMPI DUP1 DUP1 PUSH1 0x20 ADD SWAP1 MLOAD DUP2 ADD SWAP1 PUSH2 0xD1D SWAP2 SWAP1 PUSH2 0x10FE JUMP JUMPDEST PUSH2 0xC42 JUMPI PUSH1 0x40 MLOAD PUSH32 0x8C379A000000000000000000000000000000000000000000000000000000000 DUP2 MSTORE PUSH1 0x20 PUSH1 0x4 DUP3 ADD MSTORE PUSH1 0x2A PUSH1 0x24 DUP3 ADD MSTORE PUSH32 0x5361666545524332303A204552433230206F7065726174696F6E20646964206E PUSH1 0x44 DUP3 ADD MSTORE PUSH32 0x6F74207375636365656400000000000000000000000000000000000000000000 PUSH1 0x64 DUP3 ADD MSTORE PUSH1 0x84 ADD PUSH2 0xBE3 JUMP JUMPDEST PUSH1 0x60 PUSH2 0x9C2 DUP5 DUP5 PUSH1 0x0 DUP6 DUP6 PUSH1 0x0 DUP1 DUP7 PUSH20 0xFFFFFFFFFFFFFFFFFFFFFFFFFFFFFFFFFFFFFFFF AND DUP6 DUP8 PUSH1 0x40 MLOAD PUSH2 0xDDD SWAP2 SWAP1 PUSH2 0x1120 JUMP JUMPDEST PUSH1 0x0 PUSH1 0x40 MLOAD DUP1 DUP4 SUB DUP2 DUP6 DUP8 GAS CALL SWAP3 POP POP POP RETURNDATASIZE DUP1 PUSH1 0x0 DUP2 EQ PUSH2 0xE1A JUMPI PUSH1 0x40 MLOAD SWAP2 POP PUSH1 0x1F NOT PUSH1 0x3F RETURNDATASIZE ADD AND DUP3 ADD PUSH1 0x40 MSTORE RETURNDATASIZE DUP3 MSTORE RETURNDATASIZE PUSH1 0x0 PUSH1 0x20 DUP5 ADD RETURNDATACOPY PUSH2 0xE1F JUMP JUMPDEST PUSH1 0x60 SWAP2 POP JUMPDEST POP SWAP2 POP SWAP2 POP PUSH2 0xE30 DUP8 DUP4 DUP4 DUP8 PUSH2 0xE3B JUMP JUMPDEST SWAP8 SWAP7 POP POP POP POP POP POP POP JUMP JUMPDEST PUSH1 0x60 DUP4 ISZERO PUSH2 0xECE JUMPI DUP3 MLOAD PUSH2 0xEC7 JUMPI PUSH20 0xFFFFFFFFFFFFFFFFFFFFFFFFFFFFFFFFFFFFFFFF DUP6 AND EXTCODESIZE PUSH2 0xEC7 JUMPI PUSH1 0x40 MLOAD PUSH32 0x8C379A000000000000000000000000000000000000000000000000000000000 DUP2 MSTORE PUSH1 0x20 PUSH1 0x4 DUP3 ADD MSTORE PUSH1 0x1D PUSH1 0x24 DUP3 ADD MSTORE PUSH32 0x416464726573733A2063616C6C20746F206E6F6E2D636F6E7472616374000000 PUSH1 0x44 DUP3 ADD MSTORE PUSH1 0x64 ADD PUSH2 0xBE3 JUMP JUMPDEST POP DUP2 PUSH2 0x9C2 JUMP JUMPDEST PUSH2 0x9C2 DUP4 DUP4 DUP2 MLOAD ISZERO PUSH2 0xEE3 JUMPI DUP2 MLOAD DUP1 DUP4 PUSH1 0x20 ADD REVERT JUMPDEST DUP1 PUSH1 0x40 MLOAD PUSH32 0x8C379A000000000000000000000000000000000000000000000000000000000 DUP2 MSTORE PUSH1 0x4 ADD PUSH2 0xBE3 SWAP2 SWAP1 PUSH2 0x113C JUMP JUMPDEST PUSH1 0x0 DUP1 PUSH1 0x40 DUP4 DUP6 SUB SLT ISZERO PUSH2 0xF2A JUMPI PUSH1 0x0 DUP1 REVERT JUMPDEST POP POP DUP1 CALLDATALOAD SWAP3 PUSH1 0x20 SWAP1 SWAP2 ADD CALLDATALOAD SWAP2 POP JUMP JUMPDEST PUSH1 0x0 JUMPDEST DUP4 DUP2 LT ISZERO PUSH2 0xF54 JUMPI DUP2 DUP2 ADD MLOAD DUP4 DUP3 ADD MSTORE PUSH1 0x20 ADD PUSH2 0xF3C JUMP JUMPDEST DUP4 DUP2 GT ISZERO PUSH2 0xAA6 JUMPI POP POP PUSH1 0x0 SWAP2 ADD MSTORE JUMP JUMPDEST PUSH1 0x0 DUP2 MLOAD DUP1 DUP5 MSTORE PUSH2 0xF7D DUP2 PUSH1 0x20 DUP7 ADD PUSH1 0x20 DUP7 ADD PUSH2 0xF39 JUMP JUMPDEST PUSH1 0x1F ADD PUSH32 0xFFFFFFFFFFFFFFFFFFFFFFFFFFFFFFFFFFFFFFFFFFFFFFFFFFFFFFFFFFFFFFE0 AND SWAP3 SWAP1 SWAP3 ADD PUSH1 0x20 ADD SWAP3 SWAP2 POP POP JUMP JUMPDEST PUSH1 0x0 DUP2 MLOAD PUSH1 0xA0 DUP5 MSTORE PUSH2 0xFC4 PUSH1 0xA0 DUP6 ADD DUP3 PUSH2 0xF65 JUMP JUMPDEST SWAP1 POP PUSH20 0xFFFFFFFFFFFFFFFFFFFFFFFFFFFFFFFFFFFFFFFF PUSH1 0x20 DUP5 ADD MLOAD AND PUSH1 0x20 DUP6 ADD MSTORE PUSH1 0x40 DUP4 ADD MLOAD PUSH1 0x40 DUP6 ADD MSTORE PUSH1 0x60 DUP4 ADD MLOAD PUSH1 0x60 DUP6 ADD MSTORE PUSH1 0x80 DUP4 ADD MLOAD PUSH1 0x80 DUP6 ADD MSTORE DUP1 SWAP2 POP POP SWAP3 SWAP2 POP POP JUMP JUMPDEST PUSH1 0x20 DUP2 MSTORE PUSH1 0x0 PUSH2 0x1021 PUSH1 0x20 DUP4 ADD DUP5 PUSH2 0xFAF JUMP JUMPDEST SWAP4 SWAP3 POP POP POP JUMP JUMPDEST PUSH1 0x0 PUSH1 0x20 DUP3 DUP5 SUB SLT ISZERO PUSH2 0x103A JUMPI PUSH1 0x0 DUP1 REVERT JUMPDEST POP MLOAD SWAP2 SWAP1 POP JUMP JUMPDEST PUSH1 0x0 DUP3 DUP3 LT ISZERO PUSH2 0x107A JUMPI PUSH32 0x4E487B7100000000000000000000000000000000000000000000000000000000 PUSH1 0x0 MSTORE PUSH1 0x11 PUSH1 0x4 MSTORE PUSH1 0x24 PUSH1 0x0 REVERT JUMPDEST POP SUB SWAP1 JUMP JUMPDEST PUSH2 0x100 DUP2 ADD PUSH2 0x10F8 DUP3 DUP5 PUSH20 0xFFFFFFFFFFFFFFFFFFFFFFFFFFFFFFFFFFFFFFFF DUP1 DUP3 MLOAD AND DUP4 MSTORE DUP1 PUSH1 0x20 DUP4 ADD MLOAD AND PUSH1 0x20 DUP5 ADD MSTORE PUSH1 0x40 DUP3 ADD MLOAD PUSH1 0x2 SIGNEXTEND PUSH1 0x40 DUP5 ADD MSTORE DUP1 PUSH1 0x60 DUP4 ADD MLOAD AND PUSH1 0x60 DUP5 ADD MSTORE PUSH1 0x80 DUP3 ADD MLOAD PUSH1 0x80 DUP5 ADD MSTORE PUSH1 0xA0 DUP3 ADD MLOAD PUSH1 0xA0 DUP5 ADD MSTORE PUSH1 0xC0 DUP3 ADD MLOAD PUSH1 0xC0 DUP5 ADD MSTORE DUP1 PUSH1 0xE0 DUP4 ADD MLOAD AND PUSH1 0xE0 DUP5 ADD MSTORE POP POP POP JUMP JUMPDEST SWAP3 SWAP2 POP POP JUMP JUMPDEST PUSH1 0x0 PUSH1 0x20 DUP3 DUP5 SUB SLT ISZERO PUSH2 0x1110 JUMPI PUSH1 0x0 DUP1 REVERT JUMPDEST DUP2 MLOAD DUP1 ISZERO ISZERO DUP2 EQ PUSH2 0x1021 JUMPI PUSH1 0x0 DUP1 REVERT JUMPDEST PUSH1 0x0 DUP3 MLOAD PUSH2 0x1132 DUP2 DUP5 PUSH1 0x20 DUP8 ADD PUSH2 0xF39 JUMP JUMPDEST SWAP2 SWAP1 SWAP2 ADD SWAP3 SWAP2 POP POP JUMP JUMPDEST PUSH1 0x20 DUP2 MSTORE PUSH1 0x0 PUSH2 0x1021 PUSH1 0x20 DUP4 ADD DUP5 PUSH2 0xF65 JUMP INVALID LOG2 PUSH5 0x6970667358 0x22 SLT KECCAK256 ADDRESS 0xB5 CREATE2 DUP8 SWAP13 SWAP12 SUB 0xC 0x5F 0xE5 LOG1 DUP13 0xBC 0xB8 AND MLOAD ISZERO PUSH24 0xA39A7B9FA1FB000C45D79D2B6B1564736F6C634300080900 CALLER "},"methodIdentifiers":{"USDC()":"89a30271","USDT()":"c54e44eb","WETH9()":"4aa4a4fc","exactInput(uint256,uint256)":"151037d6","exactInputSingle(uint256,uint256)":"ca15ee47","exactOutput(uint256,uint256)":"37be506a","exactOutputSingle(uint256,uint256)":"814b3e91","router()":"f887ea40"}}}}}