{"contracts/ExampleFlash.sol":{"ExampleFlash":{"abi":[{"inputs":[{"internalType":"contract ISwapRouter","name":"_swapRouter","type":"address"},{"internalType":"address","name":"_factory","type":"address"}],"stateMutability":"nonpayable","type":"constructor"},{"inputs":[{"components":[{"internalType":"address","name":"token0","type":"address"},{"internalType":"address","name":"token1","type":"address"},{"internalType":"int24","name":"resolution","type":"int24"},{"internalType":"bool","name":"isToken0Borrowed","type":"bool"},{"internalType":"uint256","name":"amountIn","type":"uint256"},{"internalType":"address[]","name":"tokenPath","type":"address[]"},{"internalType":"int24[]","name":"resolutions","type":"int24[]"}],"internalType":"struct ExampleFlash.FlashParams","name":"params","type":"tuple"}],"name":"arbitrage","outputs":[],"stateMutability":"nonpayable","type":"function"},{"inputs":[{"internalType":"bytes","name":"data","type":"bytes"}],"name":"gridexFlashCallback","outputs":[],"stateMutability":"nonpayable","type":"function"},{"inputs":[],"name":"swapRouter","outputs":[{"internalType":"contract ISwapRouter","name":"","type":"address"}],"stateMutability":"view","type":"function"}],"evm":{"bytecode":{"linkReferences":{},"object":"60c060405234801561001057600080fd5b506040516112b63803806112b683398101604081905261002f9161005e565b6001600160a01b039182166080521660a052610098565b6001600160a01b038116811461005b57600080fd5b50565b6000806040838503121561007157600080fd5b825161007c81610046565b602084015190925061008d81610046565b809150509250929050565b60805160a0516111e66100d06000396000818160d301526106de01526000818160730152818161015f015261040e01526111e66000f3fe608060405234801561001057600080fd5b50600436106100415760003560e01c80637b17fb30146100465780637ecfb9ba1461005b578063c31c9c071461006e575b600080fd5b61005961005436600461098f565b6100be565b005b610059610069366004610c3d565b61061b565b6100957f000000000000000000000000000000000000000000000000000000000000000081565b60405173ffffffffffffffffffffffffffffffffffffffff909116815260200160405180910390f35b60006100cc82840184610d1c565b90506100fc7f00000000000000000000000000000000000000000000000000000000000000008260400151610803565b6000816060015160008151811061011557610115610e3c565b602090810291909101015182516040517f095ea7b300000000000000000000000000000000000000000000000000000000815273ffffffffffffffffffffffffffffffffffffffff7f000000000000000000000000000000000000000000000000000000000000000081166004830152602482019290925291925082169063095ea7b390604401602060405180830381600087803b1580156101b657600080fd5b505af11580156101ca573d6000803e3d6000fd5b505050506040513d601f19601f820116820180604052508101906101ee9190610e6b565b506000826060015160008151811061020857610208610e3c565b602002602001015160405160200161024b919060609190911b7fffffffffffffffffffffffffffffffffffffffff00000000000000000000000016815260140190565b604080517fffffffffffffffffffffffffffffffffffffffffffffffffffffffffffffffe0818403018152919052905060015b8360600151518110156103a85781600185608001516001846102a09190610eb7565b815181106102b0576102b0610e3c565b6020026020010151866060015184815181106102ce576102ce610e3c565b60200260200101516040516020016103489392919060f89390931b7fff0000000000000000000000000000000000000000000000000000000000000016835260e89190911b600183015260601b7fffffffffffffffffffffffffffffffffffffffff00000000000000000000000016600482015260180190565b604080517fffffffffffffffffffffffffffffffffffffffffffffffffffffffffffffffe0818403018152908290526103849291602001610efe565b604051602081830303815290604052915080806103a090610f2d565b91505061027e565b506040805160a0810182528281523060208201524281830152845160608201528451608082015290517fc04b8d5900000000000000000000000000000000000000000000000000000000815260009173ffffffffffffffffffffffffffffffffffffffff7f0000000000000000000000000000000000000000000000000000000000000000169163c04b8d599161044191600401610fb0565b602060405180830381600087803b15801561045b57600080fd5b505af115801561046f573d6000803e3d6000fd5b505050506040513d601f19601f820116820180604052508101906104939190611016565b84516040517fa9059cbb000000000000000000000000000000000000000000000000000000008152336004820152602481019190915290915073ffffffffffffffffffffffffffffffffffffffff84169063a9059cbb90604401602060405180830381600087803b15801561050757600080fd5b505af115801561051b573d6000803e3d6000fd5b505050506040513d601f19601f8201168201806040525081019061053f9190610e6b565b506020840151845173ffffffffffffffffffffffffffffffffffffffff85169163a9059cbb9161056f9085610eb7565b6040517fffffffff0000000000000000000000000000000000000000000000000000000060e085901b16815273ffffffffffffffffffffffffffffffffffffffff90921660048301526024820152604401602060405180830381600087803b1580156105da57600080fd5b505af11580156105ee573d6000803e3d6000fd5b505050506040513d601f19601f820116820180604052508101906106129190610e6b565b50505050505050565b806020015173ffffffffffffffffffffffffffffffffffffffff16816000015173ffffffffffffffffffffffffffffffffffffffff161061065b57600080fd5b60018160a001515161066d9190610eb7565b8160c00151511461067d57600080fd5b60006040518060600160405280836000015173ffffffffffffffffffffffffffffffffffffffff168152602001836020015173ffffffffffffffffffffffffffffffffffffffff168152602001836040015160020b815250905060006107037f000000000000000000000000000000000000000000000000000000000000000083610893565b90508073ffffffffffffffffffffffffffffffffffffffff1663490e6cbc308560600151610732576000610738565b85608001515b866060015161074b57866080015161074e565b60005b6040518060a00160405280896080015181526020013373ffffffffffffffffffffffffffffffffffffffff1681526020018881526020018960a0015181526020018960c001518152506040516020016107a791906110b3565b6040516020818303038152906040526040518563ffffffff1660e01b81526004016107d5949392919061116b565b600060405180830381600087803b1580156107ef57600080fd5b505af1158015610612573d6000803e3d6000fd5b3361080e8383610893565b73ffffffffffffffffffffffffffffffffffffffff161461088f576040517f08c379a000000000000000000000000000000000000000000000000000000000815260206004820152600560248201527f43565f4943000000000000000000000000000000000000000000000000000000604482015260640160405180910390fd5b5050565b6000816020015173ffffffffffffffffffffffffffffffffffffffff16826000015173ffffffffffffffffffffffffffffffffffffffff16106108d557600080fd5b8151602080840151604080860151815173ffffffffffffffffffffffffffffffffffffffff95861694810194909452939091169082015260029190910b606082015261095e90608001604051602081830303815290604052805190602001207f884a6891a166f885bf6f0a3b330a25e41d1761a5aa091110a229d9a0e34b2c3660001b85610965565b9392505050565b6000604051836040820152846020820152828152600b8101905060ff815360559020949350505050565b600080602083850312156109a257600080fd5b823567ffffffffffffffff808211156109ba57600080fd5b818501915085601f8301126109ce57600080fd5b8135818111156109dd57600080fd5b8660208285010111156109ef57600080fd5b60209290920196919550909350505050565b7f4e487b7100000000000000000000000000000000000000000000000000000000600052604160045260246000fd5b60405160e0810167ffffffffffffffff81118282101715610a5357610a53610a01565b60405290565b60405160a0810167ffffffffffffffff81118282101715610a5357610a53610a01565b6040516060810167ffffffffffffffff81118282101715610a5357610a53610a01565b604051601f82017fffffffffffffffffffffffffffffffffffffffffffffffffffffffffffffffe016810167ffffffffffffffff81118282101715610ae657610ae6610a01565b604052919050565b803573ffffffffffffffffffffffffffffffffffffffff81168114610b1257600080fd5b919050565b8035600281900b8114610b1257600080fd5b8015158114610b3757600080fd5b50565b8035610b1281610b29565b600067ffffffffffffffff821115610b5f57610b5f610a01565b5060051b60200190565b600082601f830112610b7a57600080fd5b81356020610b8f610b8a83610b45565b610a9f565b82815260059290921b84018101918181019086841115610bae57600080fd5b8286015b84811015610bd057610bc381610aee565b8352918301918301610bb2565b509695505050505050565b600082601f830112610bec57600080fd5b81356020610bfc610b8a83610b45565b82815260059290921b84018101918181019086841115610c1b57600080fd5b8286015b84811015610bd057610c3081610b17565b8352918301918301610c1f565b600060208284031215610c4f57600080fd5b813567ffffffffffffffff80821115610c6757600080fd5b9083019060e08286031215610c7b57600080fd5b610c83610a30565b610c8c83610aee565b8152610c9a60208401610aee565b6020820152610cab60408401610b17565b6040820152610cbc60608401610b3a565b60608201526080830135608082015260a083013582811115610cdd57600080fd5b610ce987828601610b69565b60a08301525060c083013582811115610d0157600080fd5b610d0d87828601610bdb565b60c08301525095945050505050565b600060208284031215610d2e57600080fd5b813567ffffffffffffffff80821115610d4657600080fd5b9083019081850360e0811215610d5b57600080fd5b610d63610a59565b83358152610d7360208501610aee565b602082015260607fffffffffffffffffffffffffffffffffffffffffffffffffffffffffffffffc083011215610da857600080fd5b610db0610a7c565b9150610dbe60408501610aee565b8252610dcc60608501610aee565b6020830152610ddd60808501610b17565b604083015281604082015260a0840135915082821115610dfc57600080fd5b610e0887838601610b69565b606082015260c0840135915082821115610e2157600080fd5b610e2d87838601610bdb565b60808201529695505050505050565b7f4e487b7100000000000000000000000000000000000000000000000000000000600052603260045260246000fd5b600060208284031215610e7d57600080fd5b815161095e81610b29565b7f4e487b7100000000000000000000000000000000000000000000000000000000600052601160045260246000fd5b600082821015610ec957610ec9610e88565b500390565b60005b83811015610ee9578181015183820152602001610ed1565b83811115610ef8576000848401525b50505050565b60008351610f10818460208801610ece565b835190830190610f24818360208801610ece565b01949350505050565b60007fffffffffffffffffffffffffffffffffffffffffffffffffffffffffffffffff821415610f5f57610f5f610e88565b5060010190565b60008151808452610f7e816020860160208601610ece565b601f017fffffffffffffffffffffffffffffffffffffffffffffffffffffffffffffffe0169290920160200192915050565b602081526000825160a06020840152610fcc60c0840182610f66565b905073ffffffffffffffffffffffffffffffffffffffff60208501511660408401526040840151606084015260608401516080840152608084015160a08401528091505092915050565b60006020828403121561102857600080fd5b5051919050565b600081518084526020808501945080840160005b8381101561107557815173ffffffffffffffffffffffffffffffffffffffff1687529582019590820190600101611043565b509495945050505050565b600081518084526020808501945080840160005b8381101561107557815160020b87529582019590820190600101611094565b60208152815160208201526000602083015173ffffffffffffffffffffffffffffffffffffffff80821660408501526040850151915080825116606085015280602083015116608085015250604081015160020b60a084015250606083015160e060c084015261112761010084018261102f565b905060808401517fffffffffffffffffffffffffffffffffffffffffffffffffffffffffffffffe08483030160e08501526111628282611080565b95945050505050565b73ffffffffffffffffffffffffffffffffffffffff851681528360208201528260408201526080606082015260006111a66080830184610f66565b969550505050505056fea2646970667358221220e3dfc139710d19dfe9f936eb18c54a3e91dae4fd2ce5a3b9fa1cf6d0b56980d664736f6c63430008090033","opcodes":"PUSH1 0xC0 PUSH1 0x40 MSTORE CALLVALUE DUP1 ISZERO PUSH2 0x10 JUMPI PUSH1 0x0 DUP1 REVERT JUMPDEST POP PUSH1 0x40 MLOAD PUSH2 0x12B6 CODESIZE SUB DUP1 PUSH2 0x12B6 DUP4 CODECOPY DUP2 ADD PUSH1 0x40 DUP2 SWAP1 MSTORE PUSH2 0x2F SWAP2 PUSH2 0x5E JUMP JUMPDEST PUSH1 0x1 PUSH1 0x1 PUSH1 0xA0 SHL SUB SWAP2 DUP3 AND PUSH1 0x80 MSTORE AND PUSH1 0xA0 MSTORE PUSH2 0x98 JUMP JUMPDEST PUSH1 0x1 PUSH1 0x1 PUSH1 0xA0 SHL SUB DUP2 AND DUP2 EQ PUSH2 0x5B JUMPI PUSH1 0x0 DUP1 REVERT JUMPDEST POP JUMP JUMPDEST PUSH1 0x0 DUP1 PUSH1 0x40 DUP4 DUP6 SUB SLT ISZERO PUSH2 0x71 JUMPI PUSH1 0x0 DUP1 REVERT JUMPDEST DUP3 MLOAD PUSH2 0x7C DUP2 PUSH2 0x46 JUMP JUMPDEST PUSH1 0x20 DUP5 ADD MLOAD SWAP1 SWAP3 POP PUSH2 0x8D DUP2 PUSH2 0x46 JUMP JUMPDEST DUP1 SWAP2 POP POP SWAP3 POP SWAP3 SWAP1 POP JUMP JUMPDEST PUSH1 0x80 MLOAD PUSH1 0xA0 MLOAD PUSH2 0x11E6 PUSH2 0xD0 PUSH1 0x0 CODECOPY PUSH1 0x0 DUP2 DUP2 PUSH1 0xD3 ADD MSTORE PUSH2 0x6DE ADD MSTORE PUSH1 0x0 DUP2 DUP2 PUSH1 0x73 ADD MSTORE DUP2 DUP2 PUSH2 0x15F ADD MSTORE PUSH2 0x40E ADD MSTORE PUSH2 0x11E6 PUSH1 0x0 RETURN INVALID PUSH1 0x80 PUSH1 0x40 MSTORE CALLVALUE DUP1 ISZERO PUSH2 0x10 JUMPI PUSH1 0x0 DUP1 REVERT JUMPDEST POP PUSH1 0x4 CALLDATASIZE LT PUSH2 0x41 JUMPI PUSH1 0x0 CALLDATALOAD PUSH1 0xE0 SHR DUP1 PUSH4 0x7B17FB30 EQ PUSH2 0x46 JUMPI DUP1 PUSH4 0x7ECFB9BA EQ PUSH2 0x5B JUMPI DUP1 PUSH4 0xC31C9C07 EQ PUSH2 0x6E JUMPI JUMPDEST PUSH1 0x0 DUP1 REVERT JUMPDEST PUSH2 0x59 PUSH2 0x54 CALLDATASIZE PUSH1 0x4 PUSH2 0x98F JUMP JUMPDEST PUSH2 0xBE JUMP JUMPDEST STOP JUMPDEST PUSH2 0x59 PUSH2 0x69 CALLDATASIZE PUSH1 0x4 PUSH2 0xC3D JUMP JUMPDEST PUSH2 0x61B JUMP JUMPDEST PUSH2 0x95 PUSH32 0x0 DUP2 JUMP JUMPDEST PUSH1 0x40 MLOAD PUSH20 0xFFFFFFFFFFFFFFFFFFFFFFFFFFFFFFFFFFFFFFFF SWAP1 SWAP2 AND DUP2 MSTORE PUSH1 0x20 ADD PUSH1 0x40 MLOAD DUP1 SWAP2 SUB SWAP1 RETURN JUMPDEST PUSH1 0x0 PUSH2 0xCC DUP3 DUP5 ADD DUP5 PUSH2 0xD1C JUMP JUMPDEST SWAP1 POP PUSH2 0xFC PUSH32 0x0 DUP3 PUSH1 0x40 ADD MLOAD PUSH2 0x803 JUMP JUMPDEST PUSH1 0x0 DUP2 PUSH1 0x60 ADD MLOAD PUSH1 0x0 DUP2 MLOAD DUP2 LT PUSH2 0x115 JUMPI PUSH2 0x115 PUSH2 0xE3C JUMP JUMPDEST PUSH1 0x20 SWAP1 DUP2 MUL SWAP2 SWAP1 SWAP2 ADD ADD MLOAD DUP3 MLOAD PUSH1 0x40 MLOAD PUSH32 0x95EA7B300000000000000000000000000000000000000000000000000000000 DUP2 MSTORE PUSH20 0xFFFFFFFFFFFFFFFFFFFFFFFFFFFFFFFFFFFFFFFF PUSH32 0x0 DUP2 AND PUSH1 0x4 DUP4 ADD MSTORE PUSH1 0x24 DUP3 ADD SWAP3 SWAP1 SWAP3 MSTORE SWAP2 SWAP3 POP DUP3 AND SWAP1 PUSH4 0x95EA7B3 SWAP1 PUSH1 0x44 ADD PUSH1 0x20 PUSH1 0x40 MLOAD DUP1 DUP4 SUB DUP2 PUSH1 0x0 DUP8 DUP1 EXTCODESIZE ISZERO DUP1 ISZERO PUSH2 0x1B6 JUMPI PUSH1 0x0 DUP1 REVERT JUMPDEST POP GAS CALL ISZERO DUP1 ISZERO PUSH2 0x1CA JUMPI RETURNDATASIZE PUSH1 0x0 DUP1 RETURNDATACOPY RETURNDATASIZE PUSH1 0x0 REVERT JUMPDEST POP POP POP POP PUSH1 0x40 MLOAD RETURNDATASIZE PUSH1 0x1F NOT PUSH1 0x1F DUP3 ADD AND DUP3 ADD DUP1 PUSH1 0x40 MSTORE POP DUP2 ADD SWAP1 PUSH2 0x1EE SWAP2 SWAP1 PUSH2 0xE6B JUMP JUMPDEST POP PUSH1 0x0 DUP3 PUSH1 0x60 ADD MLOAD PUSH1 0x0 DUP2 MLOAD DUP2 LT PUSH2 0x208 JUMPI PUSH2 0x208 PUSH2 0xE3C JUMP JUMPDEST PUSH1 0x20 MUL PUSH1 0x20 ADD ADD MLOAD PUSH1 0x40 MLOAD PUSH1 0x20 ADD PUSH2 0x24B SWAP2 SWAP1 PUSH1 0x60 SWAP2 SWAP1 SWAP2 SHL PUSH32 0xFFFFFFFFFFFFFFFFFFFFFFFFFFFFFFFFFFFFFFFF000000000000000000000000 AND DUP2 MSTORE PUSH1 0x14 ADD SWAP1 JUMP JUMPDEST PUSH1 0x40 DUP1 MLOAD PUSH32 0xFFFFFFFFFFFFFFFFFFFFFFFFFFFFFFFFFFFFFFFFFFFFFFFFFFFFFFFFFFFFFFE0 DUP2 DUP5 SUB ADD DUP2 MSTORE SWAP2 SWAP1 MSTORE SWAP1 POP PUSH1 0x1 JUMPDEST DUP4 PUSH1 0x60 ADD MLOAD MLOAD DUP2 LT ISZERO PUSH2 0x3A8 JUMPI DUP2 PUSH1 0x1 DUP6 PUSH1 0x80 ADD MLOAD PUSH1 0x1 DUP5 PUSH2 0x2A0 SWAP2 SWAP1 PUSH2 0xEB7 JUMP JUMPDEST DUP2 MLOAD DUP2 LT PUSH2 0x2B0 JUMPI PUSH2 0x2B0 PUSH2 0xE3C JUMP JUMPDEST PUSH1 0x20 MUL PUSH1 0x20 ADD ADD MLOAD DUP7 PUSH1 0x60 ADD MLOAD DUP5 DUP2 MLOAD DUP2 LT PUSH2 0x2CE JUMPI PUSH2 0x2CE PUSH2 0xE3C JUMP JUMPDEST PUSH1 0x20 MUL PUSH1 0x20 ADD ADD MLOAD PUSH1 0x40 MLOAD PUSH1 0x20 ADD PUSH2 0x348 SWAP4 SWAP3 SWAP2 SWAP1 PUSH1 0xF8 SWAP4 SWAP1 SWAP4 SHL PUSH32 0xFF00000000000000000000000000000000000000000000000000000000000000 AND DUP4 MSTORE PUSH1 0xE8 SWAP2 SWAP1 SWAP2 SHL PUSH1 0x1 DUP4 ADD MSTORE PUSH1 0x60 SHL PUSH32 0xFFFFFFFFFFFFFFFFFFFFFFFFFFFFFFFFFFFFFFFF000000000000000000000000 AND PUSH1 0x4 DUP3 ADD MSTORE PUSH1 0x18 ADD SWAP1 JUMP JUMPDEST PUSH1 0x40 DUP1 MLOAD PUSH32 0xFFFFFFFFFFFFFFFFFFFFFFFFFFFFFFFFFFFFFFFFFFFFFFFFFFFFFFFFFFFFFFE0 DUP2 DUP5 SUB ADD DUP2 MSTORE SWAP1 DUP3 SWAP1 MSTORE PUSH2 0x384 SWAP3 SWAP2 PUSH1 0x20 ADD PUSH2 0xEFE JUMP JUMPDEST PUSH1 0x40 MLOAD PUSH1 0x20 DUP2 DUP4 SUB SUB DUP2 MSTORE SWAP1 PUSH1 0x40 MSTORE SWAP2 POP DUP1 DUP1 PUSH2 0x3A0 SWAP1 PUSH2 0xF2D JUMP JUMPDEST SWAP2 POP POP PUSH2 0x27E JUMP JUMPDEST POP PUSH1 0x40 DUP1 MLOAD PUSH1 0xA0 DUP2 ADD DUP3 MSTORE DUP3 DUP2 MSTORE ADDRESS PUSH1 0x20 DUP3 ADD MSTORE TIMESTAMP DUP2 DUP4 ADD MSTORE DUP5 MLOAD PUSH1 0x60 DUP3 ADD MSTORE DUP5 MLOAD PUSH1 0x80 DUP3 ADD MSTORE SWAP1 MLOAD PUSH32 0xC04B8D5900000000000000000000000000000000000000000000000000000000 DUP2 MSTORE PUSH1 0x0 SWAP2 PUSH20 0xFFFFFFFFFFFFFFFFFFFFFFFFFFFFFFFFFFFFFFFF PUSH32 0x0 AND SWAP2 PUSH4 0xC04B8D59 SWAP2 PUSH2 0x441 SWAP2 PUSH1 0x4 ADD PUSH2 0xFB0 JUMP JUMPDEST PUSH1 0x20 PUSH1 0x40 MLOAD DUP1 DUP4 SUB DUP2 PUSH1 0x0 DUP8 DUP1 EXTCODESIZE ISZERO DUP1 ISZERO PUSH2 0x45B JUMPI PUSH1 0x0 DUP1 REVERT JUMPDEST POP GAS CALL ISZERO DUP1 ISZERO PUSH2 0x46F JUMPI RETURNDATASIZE PUSH1 0x0 DUP1 RETURNDATACOPY RETURNDATASIZE PUSH1 0x0 REVERT JUMPDEST POP POP POP POP PUSH1 0x40 MLOAD RETURNDATASIZE PUSH1 0x1F NOT PUSH1 0x1F DUP3 ADD AND DUP3 ADD DUP1 PUSH1 0x40 MSTORE POP DUP2 ADD SWAP1 PUSH2 0x493 SWAP2 SWAP1 PUSH2 0x1016 JUMP JUMPDEST DUP5 MLOAD PUSH1 0x40 MLOAD PUSH32 0xA9059CBB00000000000000000000000000000000000000000000000000000000 DUP2 MSTORE CALLER PUSH1 0x4 DUP3 ADD MSTORE PUSH1 0x24 DUP2 ADD SWAP2 SWAP1 SWAP2 MSTORE SWAP1 SWAP2 POP PUSH20 0xFFFFFFFFFFFFFFFFFFFFFFFFFFFFFFFFFFFFFFFF DUP5 AND SWAP1 PUSH4 0xA9059CBB SWAP1 PUSH1 0x44 ADD PUSH1 0x20 PUSH1 0x40 MLOAD DUP1 DUP4 SUB DUP2 PUSH1 0x0 DUP8 DUP1 EXTCODESIZE ISZERO DUP1 ISZERO PUSH2 0x507 JUMPI PUSH1 0x0 DUP1 REVERT JUMPDEST POP GAS CALL ISZERO DUP1 ISZERO PUSH2 0x51B JUMPI RETURNDATASIZE PUSH1 0x0 DUP1 RETURNDATACOPY RETURNDATASIZE PUSH1 0x0 REVERT JUMPDEST POP POP POP POP PUSH1 0x40 MLOAD RETURNDATASIZE PUSH1 0x1F NOT PUSH1 0x1F DUP3 ADD AND DUP3 ADD DUP1 PUSH1 0x40 MSTORE POP DUP2 ADD SWAP1 PUSH2 0x53F SWAP2 SWAP1 PUSH2 0xE6B JUMP JUMPDEST POP PUSH1 0x20 DUP5 ADD MLOAD DUP5 MLOAD PUSH20 0xFFFFFFFFFFFFFFFFFFFFFFFFFFFFFFFFFFFFFFFF DUP6 AND SWAP2 PUSH4 0xA9059CBB SWAP2 PUSH2 0x56F SWAP1 DUP6 PUSH2 0xEB7 JUMP JUMPDEST PUSH1 0x40 MLOAD PUSH32 0xFFFFFFFF00000000000000000000000000000000000000000000000000000000 PUSH1 0xE0 DUP6 SWAP1 SHL AND DUP2 MSTORE PUSH20 0xFFFFFFFFFFFFFFFFFFFFFFFFFFFFFFFFFFFFFFFF SWAP1 SWAP3 AND PUSH1 0x4 DUP4 ADD MSTORE PUSH1 0x24 DUP3 ADD MSTORE PUSH1 0x44 ADD PUSH1 0x20 PUSH1 0x40 MLOAD DUP1 DUP4 SUB DUP2 PUSH1 0x0 DUP8 DUP1 EXTCODESIZE ISZERO DUP1 ISZERO PUSH2 0x5DA JUMPI PUSH1 0x0 DUP1 REVERT JUMPDEST POP GAS CALL ISZERO DUP1 ISZERO PUSH2 0x5EE JUMPI RETURNDATASIZE PUSH1 0x0 DUP1 RETURNDATACOPY RETURNDATASIZE PUSH1 0x0 REVERT JUMPDEST POP POP POP POP PUSH1 0x40 MLOAD RETURNDATASIZE PUSH1 0x1F NOT PUSH1 0x1F DUP3 ADD AND DUP3 ADD DUP1 PUSH1 0x40 MSTORE POP DUP2 ADD SWAP1 PUSH2 0x612 SWAP2 SWAP1 PUSH2 0xE6B JUMP JUMPDEST POP POP POP POP POP POP POP JUMP JUMPDEST DUP1 PUSH1 0x20 ADD MLOAD PUSH20 0xFFFFFFFFFFFFFFFFFFFFFFFFFFFFFFFFFFFFFFFF AND DUP2 PUSH1 0x0 ADD MLOAD PUSH20 0xFFFFFFFFFFFFFFFFFFFFFFFFFFFFFFFFFFFFFFFF AND LT PUSH2 0x65B JUMPI PUSH1 0x0 DUP1 REVERT JUMPDEST PUSH1 0x1 DUP2 PUSH1 0xA0 ADD MLOAD MLOAD PUSH2 0x66D SWAP2 SWAP1 PUSH2 0xEB7 JUMP JUMPDEST DUP2 PUSH1 0xC0 ADD MLOAD MLOAD EQ PUSH2 0x67D JUMPI PUSH1 0x0 DUP1 REVERT JUMPDEST PUSH1 0x0 PUSH1 0x40 MLOAD DUP1 PUSH1 0x60 ADD PUSH1 0x40 MSTORE DUP1 DUP4 PUSH1 0x0 ADD MLOAD PUSH20 0xFFFFFFFFFFFFFFFFFFFFFFFFFFFFFFFFFFFFFFFF AND DUP2 MSTORE PUSH1 0x20 ADD DUP4 PUSH1 0x20 ADD MLOAD PUSH20 0xFFFFFFFFFFFFFFFFFFFFFFFFFFFFFFFFFFFFFFFF AND DUP2 MSTORE PUSH1 0x20 ADD DUP4 PUSH1 0x40 ADD MLOAD PUSH1 0x2 SIGNEXTEND DUP2 MSTORE POP SWAP1 POP PUSH1 0x0 PUSH2 0x703 PUSH32 0x0 DUP4 PUSH2 0x893 JUMP JUMPDEST SWAP1 POP DUP1 PUSH20 0xFFFFFFFFFFFFFFFFFFFFFFFFFFFFFFFFFFFFFFFF AND PUSH4 0x490E6CBC ADDRESS DUP6 PUSH1 0x60 ADD MLOAD PUSH2 0x732 JUMPI PUSH1 0x0 PUSH2 0x738 JUMP JUMPDEST DUP6 PUSH1 0x80 ADD MLOAD JUMPDEST DUP7 PUSH1 0x60 ADD MLOAD PUSH2 0x74B JUMPI DUP7 PUSH1 0x80 ADD MLOAD PUSH2 0x74E JUMP JUMPDEST PUSH1 0x0 JUMPDEST PUSH1 0x40 MLOAD DUP1 PUSH1 0xA0 ADD PUSH1 0x40 MSTORE DUP1 DUP10 PUSH1 0x80 ADD MLOAD DUP2 MSTORE PUSH1 0x20 ADD CALLER PUSH20 0xFFFFFFFFFFFFFFFFFFFFFFFFFFFFFFFFFFFFFFFF AND DUP2 MSTORE PUSH1 0x20 ADD DUP9 DUP2 MSTORE PUSH1 0x20 ADD DUP10 PUSH1 0xA0 ADD MLOAD DUP2 MSTORE PUSH1 0x20 ADD DUP10 PUSH1 0xC0 ADD MLOAD DUP2 MSTORE POP PUSH1 0x40 MLOAD PUSH1 0x20 ADD PUSH2 0x7A7 SWAP2 SWAP1 PUSH2 0x10B3 JUMP JUMPDEST PUSH1 0x40 MLOAD PUSH1 0x20 DUP2 DUP4 SUB SUB DUP2 MSTORE SWAP1 PUSH1 0x40 MSTORE PUSH1 0x40 MLOAD DUP6 PUSH4 0xFFFFFFFF AND PUSH1 0xE0 SHL DUP2 MSTORE PUSH1 0x4 ADD PUSH2 0x7D5 SWAP5 SWAP4 SWAP3 SWAP2 SWAP1 PUSH2 0x116B JUMP JUMPDEST PUSH1 0x0 PUSH1 0x40 MLOAD DUP1 DUP4 SUB DUP2 PUSH1 0x0 DUP8 DUP1 EXTCODESIZE ISZERO DUP1 ISZERO PUSH2 0x7EF JUMPI PUSH1 0x0 DUP1 REVERT JUMPDEST POP GAS CALL ISZERO DUP1 ISZERO PUSH2 0x612 JUMPI RETURNDATASIZE PUSH1 0x0 DUP1 RETURNDATACOPY RETURNDATASIZE PUSH1 0x0 REVERT JUMPDEST CALLER PUSH2 0x80E DUP4 DUP4 PUSH2 0x893 JUMP JUMPDEST PUSH20 0xFFFFFFFFFFFFFFFFFFFFFFFFFFFFFFFFFFFFFFFF AND EQ PUSH2 0x88F JUMPI PUSH1 0x40 MLOAD PUSH32 0x8C379A000000000000000000000000000000000000000000000000000000000 DUP2 MSTORE PUSH1 0x20 PUSH1 0x4 DUP3 ADD MSTORE PUSH1 0x5 PUSH1 0x24 DUP3 ADD MSTORE PUSH32 0x43565F4943000000000000000000000000000000000000000000000000000000 PUSH1 0x44 DUP3 ADD MSTORE PUSH1 0x64 ADD PUSH1 0x40 MLOAD DUP1 SWAP2 SUB SWAP1 REVERT JUMPDEST POP POP JUMP JUMPDEST PUSH1 0x0 DUP2 PUSH1 0x20 ADD MLOAD PUSH20 0xFFFFFFFFFFFFFFFFFFFFFFFFFFFFFFFFFFFFFFFF AND DUP3 PUSH1 0x0 ADD MLOAD PUSH20 0xFFFFFFFFFFFFFFFFFFFFFFFFFFFFFFFFFFFFFFFF AND LT PUSH2 0x8D5 JUMPI PUSH1 0x0 DUP1 REVERT JUMPDEST DUP2 MLOAD PUSH1 0x20 DUP1 DUP5 ADD MLOAD PUSH1 0x40 DUP1 DUP7 ADD MLOAD DUP2 MLOAD PUSH20 0xFFFFFFFFFFFFFFFFFFFFFFFFFFFFFFFFFFFFFFFF SWAP6 DUP7 AND SWAP5 DUP2 ADD SWAP5 SWAP1 SWAP5 MSTORE SWAP4 SWAP1 SWAP2 AND SWAP1 DUP3 ADD MSTORE PUSH1 0x2 SWAP2 SWAP1 SWAP2 SIGNEXTEND PUSH1 0x60 DUP3 ADD MSTORE PUSH2 0x95E SWAP1 PUSH1 0x80 ADD PUSH1 0x40 MLOAD PUSH1 0x20 DUP2 DUP4 SUB SUB DUP2 MSTORE SWAP1 PUSH1 0x40 MSTORE DUP1 MLOAD SWAP1 PUSH1 0x20 ADD KECCAK256 PUSH32 0x884A6891A166F885BF6F0A3B330A25E41D1761A5AA091110A229D9A0E34B2C36 PUSH1 0x0 SHL DUP6 PUSH2 0x965 JUMP JUMPDEST SWAP4 SWAP3 POP POP POP JUMP JUMPDEST PUSH1 0x0 PUSH1 0x40 MLOAD DUP4 PUSH1 0x40 DUP3 ADD MSTORE DUP5 PUSH1 0x20 DUP3 ADD MSTORE DUP3 DUP2 MSTORE PUSH1 0xB DUP2 ADD SWAP1 POP PUSH1 0xFF DUP2 MSTORE8 PUSH1 0x55 SWAP1 KECCAK256 SWAP5 SWAP4 POP POP POP POP JUMP JUMPDEST PUSH1 0x0 DUP1 PUSH1 0x20 DUP4 DUP6 SUB SLT ISZERO PUSH2 0x9A2 JUMPI PUSH1 0x0 DUP1 REVERT JUMPDEST DUP3 CALLDATALOAD PUSH8 0xFFFFFFFFFFFFFFFF DUP1 DUP3 GT ISZERO PUSH2 0x9BA JUMPI PUSH1 0x0 DUP1 REVERT JUMPDEST DUP2 DUP6 ADD SWAP2 POP DUP6 PUSH1 0x1F DUP4 ADD SLT PUSH2 0x9CE JUMPI PUSH1 0x0 DUP1 REVERT JUMPDEST DUP2 CALLDATALOAD DUP2 DUP2 GT ISZERO PUSH2 0x9DD JUMPI PUSH1 0x0 DUP1 REVERT JUMPDEST DUP7 PUSH1 0x20 DUP3 DUP6 ADD ADD GT ISZERO PUSH2 0x9EF JUMPI PUSH1 0x0 DUP1 REVERT JUMPDEST PUSH1 0x20 SWAP3 SWAP1 SWAP3 ADD SWAP7 SWAP2 SWAP6 POP SWAP1 SWAP4 POP POP POP POP JUMP JUMPDEST PUSH32 0x4E487B7100000000000000000000000000000000000000000000000000000000 PUSH1 0x0 MSTORE PUSH1 0x41 PUSH1 0x4 MSTORE PUSH1 0x24 PUSH1 0x0 REVERT JUMPDEST PUSH1 0x40 MLOAD PUSH1 0xE0 DUP2 ADD PUSH8 0xFFFFFFFFFFFFFFFF DUP2 GT DUP3 DUP3 LT OR ISZERO PUSH2 0xA53 JUMPI PUSH2 0xA53 PUSH2 0xA01 JUMP JUMPDEST PUSH1 0x40 MSTORE SWAP1 JUMP JUMPDEST PUSH1 0x40 MLOAD PUSH1 0xA0 DUP2 ADD PUSH8 0xFFFFFFFFFFFFFFFF DUP2 GT DUP3 DUP3 LT OR ISZERO PUSH2 0xA53 JUMPI PUSH2 0xA53 PUSH2 0xA01 JUMP JUMPDEST PUSH1 0x40 MLOAD PUSH1 0x60 DUP2 ADD PUSH8 0xFFFFFFFFFFFFFFFF DUP2 GT DUP3 DUP3 LT OR ISZERO PUSH2 0xA53 JUMPI PUSH2 0xA53 PUSH2 0xA01 JUMP JUMPDEST PUSH1 0x40 MLOAD PUSH1 0x1F DUP3 ADD PUSH32 0xFFFFFFFFFFFFFFFFFFFFFFFFFFFFFFFFFFFFFFFFFFFFFFFFFFFFFFFFFFFFFFE0 AND DUP2 ADD PUSH8 0xFFFFFFFFFFFFFFFF DUP2 GT DUP3 DUP3 LT OR ISZERO PUSH2 0xAE6 JUMPI PUSH2 0xAE6 PUSH2 0xA01 JUMP JUMPDEST PUSH1 0x40 MSTORE SWAP2 SWAP1 POP JUMP JUMPDEST DUP1 CALLDATALOAD PUSH20 0xFFFFFFFFFFFFFFFFFFFFFFFFFFFFFFFFFFFFFFFF DUP2 AND DUP2 EQ PUSH2 0xB12 JUMPI PUSH1 0x0 DUP1 REVERT JUMPDEST SWAP2 SWAP1 POP JUMP JUMPDEST DUP1 CALLDATALOAD PUSH1 0x2 DUP2 SWAP1 SIGNEXTEND DUP2 EQ PUSH2 0xB12 JUMPI PUSH1 0x0 DUP1 REVERT JUMPDEST DUP1 ISZERO ISZERO DUP2 EQ PUSH2 0xB37 JUMPI PUSH1 0x0 DUP1 REVERT JUMPDEST POP JUMP JUMPDEST DUP1 CALLDATALOAD PUSH2 0xB12 DUP2 PUSH2 0xB29 JUMP JUMPDEST PUSH1 0x0 PUSH8 0xFFFFFFFFFFFFFFFF DUP3 GT ISZERO PUSH2 0xB5F JUMPI PUSH2 0xB5F PUSH2 0xA01 JUMP JUMPDEST POP PUSH1 0x5 SHL PUSH1 0x20 ADD SWAP1 JUMP JUMPDEST PUSH1 0x0 DUP3 PUSH1 0x1F DUP4 ADD SLT PUSH2 0xB7A JUMPI PUSH1 0x0 DUP1 REVERT JUMPDEST DUP2 CALLDATALOAD PUSH1 0x20 PUSH2 0xB8F PUSH2 0xB8A DUP4 PUSH2 0xB45 JUMP JUMPDEST PUSH2 0xA9F JUMP JUMPDEST DUP3 DUP2 MSTORE PUSH1 0x5 SWAP3 SWAP1 SWAP3 SHL DUP5 ADD DUP2 ADD SWAP2 DUP2 DUP2 ADD SWAP1 DUP7 DUP5 GT ISZERO PUSH2 0xBAE JUMPI PUSH1 0x0 DUP1 REVERT JUMPDEST DUP3 DUP7 ADD JUMPDEST DUP5 DUP2 LT ISZERO PUSH2 0xBD0 JUMPI PUSH2 0xBC3 DUP2 PUSH2 0xAEE JUMP JUMPDEST DUP4 MSTORE SWAP2 DUP4 ADD SWAP2 DUP4 ADD PUSH2 0xBB2 JUMP JUMPDEST POP SWAP7 SWAP6 POP POP POP POP POP POP JUMP JUMPDEST PUSH1 0x0 DUP3 PUSH1 0x1F DUP4 ADD SLT PUSH2 0xBEC JUMPI PUSH1 0x0 DUP1 REVERT JUMPDEST DUP2 CALLDATALOAD PUSH1 0x20 PUSH2 0xBFC PUSH2 0xB8A DUP4 PUSH2 0xB45 JUMP JUMPDEST DUP3 DUP2 MSTORE PUSH1 0x5 SWAP3 SWAP1 SWAP3 SHL DUP5 ADD DUP2 ADD SWAP2 DUP2 DUP2 ADD SWAP1 DUP7 DUP5 GT ISZERO PUSH2 0xC1B JUMPI PUSH1 0x0 DUP1 REVERT JUMPDEST DUP3 DUP7 ADD JUMPDEST DUP5 DUP2 LT ISZERO PUSH2 0xBD0 JUMPI PUSH2 0xC30 DUP2 PUSH2 0xB17 JUMP JUMPDEST DUP4 MSTORE SWAP2 DUP4 ADD SWAP2 DUP4 ADD PUSH2 0xC1F JUMP JUMPDEST PUSH1 0x0 PUSH1 0x20 DUP3 DUP5 SUB SLT ISZERO PUSH2 0xC4F JUMPI PUSH1 0x0 DUP1 REVERT JUMPDEST DUP2 CALLDATALOAD PUSH8 0xFFFFFFFFFFFFFFFF DUP1 DUP3 GT ISZERO PUSH2 0xC67 JUMPI PUSH1 0x0 DUP1 REVERT JUMPDEST SWAP1 DUP4 ADD SWAP1 PUSH1 0xE0 DUP3 DUP7 SUB SLT ISZERO PUSH2 0xC7B JUMPI PUSH1 0x0 DUP1 REVERT JUMPDEST PUSH2 0xC83 PUSH2 0xA30 JUMP JUMPDEST PUSH2 0xC8C DUP4 PUSH2 0xAEE JUMP JUMPDEST DUP2 MSTORE PUSH2 0xC9A PUSH1 0x20 DUP5 ADD PUSH2 0xAEE JUMP JUMPDEST PUSH1 0x20 DUP3 ADD MSTORE PUSH2 0xCAB PUSH1 0x40 DUP5 ADD PUSH2 0xB17 JUMP JUMPDEST PUSH1 0x40 DUP3 ADD MSTORE PUSH2 0xCBC PUSH1 0x60 DUP5 ADD PUSH2 0xB3A JUMP JUMPDEST PUSH1 0x60 DUP3 ADD MSTORE PUSH1 0x80 DUP4 ADD CALLDATALOAD PUSH1 0x80 DUP3 ADD MSTORE PUSH1 0xA0 DUP4 ADD CALLDATALOAD DUP3 DUP2 GT ISZERO PUSH2 0xCDD JUMPI PUSH1 0x0 DUP1 REVERT JUMPDEST PUSH2 0xCE9 DUP8 DUP3 DUP7 ADD PUSH2 0xB69 JUMP JUMPDEST PUSH1 0xA0 DUP4 ADD MSTORE POP PUSH1 0xC0 DUP4 ADD CALLDATALOAD DUP3 DUP2 GT ISZERO PUSH2 0xD01 JUMPI PUSH1 0x0 DUP1 REVERT JUMPDEST PUSH2 0xD0D DUP8 DUP3 DUP7 ADD PUSH2 0xBDB JUMP JUMPDEST PUSH1 0xC0 DUP4 ADD MSTORE POP SWAP6 SWAP5 POP POP POP POP POP JUMP JUMPDEST PUSH1 0x0 PUSH1 0x20 DUP3 DUP5 SUB SLT ISZERO PUSH2 0xD2E JUMPI PUSH1 0x0 DUP1 REVERT JUMPDEST DUP2 CALLDATALOAD PUSH8 0xFFFFFFFFFFFFFFFF DUP1 DUP3 GT ISZERO PUSH2 0xD46 JUMPI PUSH1 0x0 DUP1 REVERT JUMPDEST SWAP1 DUP4 ADD SWAP1 DUP2 DUP6 SUB PUSH1 0xE0 DUP2 SLT ISZERO PUSH2 0xD5B JUMPI PUSH1 0x0 DUP1 REVERT JUMPDEST PUSH2 0xD63 PUSH2 0xA59 JUMP JUMPDEST DUP4 CALLDATALOAD DUP2 MSTORE PUSH2 0xD73 PUSH1 0x20 DUP6 ADD PUSH2 0xAEE JUMP JUMPDEST PUSH1 0x20 DUP3 ADD MSTORE PUSH1 0x60 PUSH32 0xFFFFFFFFFFFFFFFFFFFFFFFFFFFFFFFFFFFFFFFFFFFFFFFFFFFFFFFFFFFFFFC0 DUP4 ADD SLT ISZERO PUSH2 0xDA8 JUMPI PUSH1 0x0 DUP1 REVERT JUMPDEST PUSH2 0xDB0 PUSH2 0xA7C JUMP JUMPDEST SWAP2 POP PUSH2 0xDBE PUSH1 0x40 DUP6 ADD PUSH2 0xAEE JUMP JUMPDEST DUP3 MSTORE PUSH2 0xDCC PUSH1 0x60 DUP6 ADD PUSH2 0xAEE JUMP JUMPDEST PUSH1 0x20 DUP4 ADD MSTORE PUSH2 0xDDD PUSH1 0x80 DUP6 ADD PUSH2 0xB17 JUMP JUMPDEST PUSH1 0x40 DUP4 ADD MSTORE DUP2 PUSH1 0x40 DUP3 ADD MSTORE PUSH1 0xA0 DUP5 ADD CALLDATALOAD SWAP2 POP DUP3 DUP3 GT ISZERO PUSH2 0xDFC JUMPI PUSH1 0x0 DUP1 REVERT JUMPDEST PUSH2 0xE08 DUP8 DUP4 DUP7 ADD PUSH2 0xB69 JUMP JUMPDEST PUSH1 0x60 DUP3 ADD MSTORE PUSH1 0xC0 DUP5 ADD CALLDATALOAD SWAP2 POP DUP3 DUP3 GT ISZERO PUSH2 0xE21 JUMPI PUSH1 0x0 DUP1 REVERT JUMPDEST PUSH2 0xE2D DUP8 DUP4 DUP7 ADD PUSH2 0xBDB JUMP JUMPDEST PUSH1 0x80 DUP3 ADD MSTORE SWAP7 SWAP6 POP POP POP POP POP POP JUMP JUMPDEST PUSH32 0x4E487B7100000000000000000000000000000000000000000000000000000000 PUSH1 0x0 MSTORE PUSH1 0x32 PUSH1 0x4 MSTORE PUSH1 0x24 PUSH1 0x0 REVERT JUMPDEST PUSH1 0x0 PUSH1 0x20 DUP3 DUP5 SUB SLT ISZERO PUSH2 0xE7D JUMPI PUSH1 0x0 DUP1 REVERT JUMPDEST DUP2 MLOAD PUSH2 0x95E DUP2 PUSH2 0xB29 JUMP JUMPDEST PUSH32 0x4E487B7100000000000000000000000000000000000000000000000000000000 PUSH1 0x0 MSTORE PUSH1 0x11 PUSH1 0x4 MSTORE PUSH1 0x24 PUSH1 0x0 REVERT JUMPDEST PUSH1 0x0 DUP3 DUP3 LT ISZERO PUSH2 0xEC9 JUMPI PUSH2 0xEC9 PUSH2 0xE88 JUMP JUMPDEST POP SUB SWAP1 JUMP JUMPDEST PUSH1 0x0 JUMPDEST DUP4 DUP2 LT ISZERO PUSH2 0xEE9 JUMPI DUP2 DUP2 ADD MLOAD DUP4 DUP3 ADD MSTORE PUSH1 0x20 ADD PUSH2 0xED1 JUMP JUMPDEST DUP4 DUP2 GT ISZERO PUSH2 0xEF8 JUMPI PUSH1 0x0 DUP5 DUP5 ADD MSTORE JUMPDEST POP POP POP POP JUMP JUMPDEST PUSH1 0x0 DUP4 MLOAD PUSH2 0xF10 DUP2 DUP5 PUSH1 0x20 DUP9 ADD PUSH2 0xECE JUMP JUMPDEST DUP4 MLOAD SWAP1 DUP4 ADD SWAP1 PUSH2 0xF24 DUP2 DUP4 PUSH1 0x20 DUP9 ADD PUSH2 0xECE JUMP JUMPDEST ADD SWAP5 SWAP4 POP POP POP POP JUMP JUMPDEST PUSH1 0x0 PUSH32 0xFFFFFFFFFFFFFFFFFFFFFFFFFFFFFFFFFFFFFFFFFFFFFFFFFFFFFFFFFFFFFFFF DUP3 EQ ISZERO PUSH2 0xF5F JUMPI PUSH2 0xF5F PUSH2 0xE88 JUMP JUMPDEST POP PUSH1 0x1 ADD SWAP1 JUMP JUMPDEST PUSH1 0x0 DUP2 MLOAD DUP1 DUP5 MSTORE PUSH2 0xF7E DUP2 PUSH1 0x20 DUP7 ADD PUSH1 0x20 DUP7 ADD PUSH2 0xECE JUMP JUMPDEST PUSH1 0x1F ADD PUSH32 0xFFFFFFFFFFFFFFFFFFFFFFFFFFFFFFFFFFFFFFFFFFFFFFFFFFFFFFFFFFFFFFE0 AND SWAP3 SWAP1 SWAP3 ADD PUSH1 0x20 ADD SWAP3 SWAP2 POP POP JUMP JUMPDEST PUSH1 0x20 DUP2 MSTORE PUSH1 0x0 DUP3 MLOAD PUSH1 0xA0 PUSH1 0x20 DUP5 ADD MSTORE PUSH2 0xFCC PUSH1 0xC0 DUP5 ADD DUP3 PUSH2 0xF66 JUMP JUMPDEST SWAP1 POP PUSH20 0xFFFFFFFFFFFFFFFFFFFFFFFFFFFFFFFFFFFFFFFF PUSH1 0x20 DUP6 ADD MLOAD AND PUSH1 0x40 DUP5 ADD MSTORE PUSH1 0x40 DUP5 ADD MLOAD PUSH1 0x60 DUP5 ADD MSTORE PUSH1 0x60 DUP5 ADD MLOAD PUSH1 0x80 DUP5 ADD MSTORE PUSH1 0x80 DUP5 ADD MLOAD PUSH1 0xA0 DUP5 ADD MSTORE DUP1 SWAP2 POP POP SWAP3 SWAP2 POP POP JUMP JUMPDEST PUSH1 0x0 PUSH1 0x20 DUP3 DUP5 SUB SLT ISZERO PUSH2 0x1028 JUMPI PUSH1 0x0 DUP1 REVERT JUMPDEST POP MLOAD SWAP2 SWAP1 POP JUMP JUMPDEST PUSH1 0x0 DUP2 MLOAD DUP1 DUP5 MSTORE PUSH1 0x20 DUP1 DUP6 ADD SWAP5 POP DUP1 DUP5 ADD PUSH1 0x0 JUMPDEST DUP4 DUP2 LT ISZERO PUSH2 0x1075 JUMPI DUP2 MLOAD PUSH20 0xFFFFFFFFFFFFFFFFFFFFFFFFFFFFFFFFFFFFFFFF AND DUP8 MSTORE SWAP6 DUP3 ADD SWAP6 SWAP1 DUP3 ADD SWAP1 PUSH1 0x1 ADD PUSH2 0x1043 JUMP JUMPDEST POP SWAP5 SWAP6 SWAP5 POP POP POP POP POP JUMP JUMPDEST PUSH1 0x0 DUP2 MLOAD DUP1 DUP5 MSTORE PUSH1 0x20 DUP1 DUP6 ADD SWAP5 POP DUP1 DUP5 ADD PUSH1 0x0 JUMPDEST DUP4 DUP2 LT ISZERO PUSH2 0x1075 JUMPI DUP2 MLOAD PUSH1 0x2 SIGNEXTEND DUP8 MSTORE SWAP6 DUP3 ADD SWAP6 SWAP1 DUP3 ADD SWAP1 PUSH1 0x1 ADD PUSH2 0x1094 JUMP JUMPDEST PUSH1 0x20 DUP2 MSTORE DUP2 MLOAD PUSH1 0x20 DUP3 ADD MSTORE PUSH1 0x0 PUSH1 0x20 DUP4 ADD MLOAD PUSH20 0xFFFFFFFFFFFFFFFFFFFFFFFFFFFFFFFFFFFFFFFF DUP1 DUP3 AND PUSH1 0x40 DUP6 ADD MSTORE PUSH1 0x40 DUP6 ADD MLOAD SWAP2 POP DUP1 DUP3 MLOAD AND PUSH1 0x60 DUP6 ADD MSTORE DUP1 PUSH1 0x20 DUP4 ADD MLOAD AND PUSH1 0x80 DUP6 ADD MSTORE POP PUSH1 0x40 DUP2 ADD MLOAD PUSH1 0x2 SIGNEXTEND PUSH1 0xA0 DUP5 ADD MSTORE POP PUSH1 0x60 DUP4 ADD MLOAD PUSH1 0xE0 PUSH1 0xC0 DUP5 ADD MSTORE PUSH2 0x1127 PUSH2 0x100 DUP5 ADD DUP3 PUSH2 0x102F JUMP JUMPDEST SWAP1 POP PUSH1 0x80 DUP5 ADD MLOAD PUSH32 0xFFFFFFFFFFFFFFFFFFFFFFFFFFFFFFFFFFFFFFFFFFFFFFFFFFFFFFFFFFFFFFE0 DUP5 DUP4 SUB ADD PUSH1 0xE0 DUP6 ADD MSTORE PUSH2 0x1162 DUP3 DUP3 PUSH2 0x1080 JUMP JUMPDEST SWAP6 SWAP5 POP POP POP POP POP JUMP JUMPDEST PUSH20 0xFFFFFFFFFFFFFFFFFFFFFFFFFFFFFFFFFFFFFFFF DUP6 AND DUP2 MSTORE DUP4 PUSH1 0x20 DUP3 ADD MSTORE DUP3 PUSH1 0x40 DUP3 ADD MSTORE PUSH1 0x80 PUSH1 0x60 DUP3 ADD MSTORE PUSH1 0x0 PUSH2 0x11A6 PUSH1 0x80 DUP4 ADD DUP5 PUSH2 0xF66 JUMP JUMPDEST SWAP7 SWAP6 POP POP POP POP POP POP JUMP INVALID LOG2 PUSH5 0x6970667358 0x22 SLT KECCAK256 0xE3 0xDF 0xC1 CODECOPY PUSH18 0xD19DFE9F936EB18C54A3E91DAE4FD2CE5A3 0xB9 STATICCALL SHR 0xF6 0xD0 0xB5 PUSH10 0x80D664736F6C63430008 MULMOD STOP CALLER "},"methodIdentifiers":{"arbitrage((address,address,int24,bool,uint256,address[],int24[]))":"7ecfb9ba","gridexFlashCallback(bytes)":"7b17fb30","swapRouter()":"c31c9c07"}}}}}