{"@gridexprotocol/core/contracts/libraries/BoundaryMath.sol":{"BoundaryMath":{"abi":[{"inputs":[],"name":"MAX_BOUNDARY","outputs":[{"internalType":"int24","name":"","type":"int24"}],"stateMutability":"view","type":"function"},{"inputs":[],"name":"MIN_BOUNDARY","outputs":[{"internalType":"int24","name":"","type":"int24"}],"stateMutability":"view","type":"function"}],"evm":{"bytecode":{"linkReferences":{},"object":"60be610039600b82828239805160001a60731461002c57634e487b7160e01b600052600060045260246000fd5b30600052607381538281f3fe7300000000000000000000000000000000000000003014608060405260043610603d5760003560e01c8063aeaabde9146042578063d4dc1e7314607f575b600080fd5b60687ffffffffffffffffffffffffffffffffffffffffffffffffffffffffffff7f3d881565b60405160029190910b815260200160405180910390f35b60686206c4f38156fea2646970667358221220245480129248d3376bd9d999e62dbc3bc5a3f73fce3caeb37bfd44d3db83e33d64736f6c63430008090033","opcodes":"PUSH1 0xBE PUSH2 0x39 PUSH1 0xB DUP3 DUP3 DUP3 CODECOPY DUP1 MLOAD PUSH1 0x0 BYTE PUSH1 0x73 EQ PUSH2 0x2C JUMPI PUSH4 0x4E487B71 PUSH1 0xE0 SHL PUSH1 0x0 MSTORE PUSH1 0x0 PUSH1 0x4 MSTORE PUSH1 0x24 PUSH1 0x0 REVERT JUMPDEST ADDRESS PUSH1 0x0 MSTORE PUSH1 0x73 DUP2 MSTORE8 DUP3 DUP2 RETURN INVALID PUSH20 0x0 ADDRESS EQ PUSH1 0x80 PUSH1 0x40 MSTORE PUSH1 0x4 CALLDATASIZE LT PUSH1 0x3D JUMPI PUSH1 0x0 CALLDATALOAD PUSH1 0xE0 SHR DUP1 PUSH4 0xAEAABDE9 EQ PUSH1 0x42 JUMPI DUP1 PUSH4 0xD4DC1E73 EQ PUSH1 0x7F JUMPI JUMPDEST PUSH1 0x0 DUP1 REVERT JUMPDEST PUSH1 0x68 PUSH32 0xFFFFFFFFFFFFFFFFFFFFFFFFFFFFFFFFFFFFFFFFFFFFFFFFFFFFFFFFFFF7F3D8 DUP2 JUMP JUMPDEST PUSH1 0x40 MLOAD PUSH1 0x2 SWAP2 SWAP1 SWAP2 SIGNEXTEND DUP2 MSTORE PUSH1 0x20 ADD PUSH1 0x40 MLOAD DUP1 SWAP2 SUB SWAP1 RETURN JUMPDEST PUSH1 0x68 PUSH3 0x6C4F3 DUP2 JUMP INVALID LOG2 PUSH5 0x6970667358 0x22 SLT KECCAK256 0x24 SLOAD DUP1 SLT SWAP3 BASEFEE 0xD3 CALLDATACOPY PUSH12 0xD9D999E62DBC3BC5A3F73FCE EXTCODECOPY 0xAE 0xB3 PUSH28 0xFD44D3DB83E33D64736F6C6343000809003300000000000000000000 "},"methodIdentifiers":{"MAX_BOUNDARY()":"d4dc1e73","MIN_BOUNDARY()":"aeaabde9"}}}}}