{
  "_format": "hh-sol-artifact-1",
  "contractName": "BoundaryMath",
  "sourceName": "@gridexprotocol/core/contracts/libraries/BoundaryMath.sol",
  "abi": [
    {
      "inputs": [],
      "name": "MAX_BOUNDARY",
      "outputs": [
        {
          "internalType": "int24",
          "name": "",
          "type": "int24"
        }
      ],
      "stateMutability": "view",
      "type": "function"
    },
    {
      "inputs": [],
      "name": "MIN_BOUNDARY",
      "outputs": [
        {
          "internalType": "int24",
          "name": "",
          "type": "int24"
        }
      ],
      "stateMutability": "view",
      "type": "function"
    }
  ],
  "bytecode": "0x60be610039600b82828239805160001a60731461002c57634e487b7160e01b600052600060045260246000fd5b30600052607381538281f3fe7300000000000000000000000000000000000000003014608060405260043610603d5760003560e01c8063aeaabde9146042578063d4dc1e7314607f575b600080fd5b60687ffffffffffffffffffffffffffffffffffffffffffffffffffffffffffff7f3d881565b60405160029190910b815260200160405180910390f35b60686206c4f38156fea2646970667358221220245480129248d3376bd9d999e62dbc3bc5a3f73fce3caeb37bfd44d3db83e33d64736f6c63430008090033",
  "linkReferences": {},
  "deployedLinkReferences": {}
}