{
  "_format": "hh-sol-artifact-1",
  "contractName": "ExampleSwap",
  "sourceName": "contracts/ExampleSwap.sol",
  "abi": [
    {
      "inputs": [
        {
          "internalType": "contract ISwapRouter",
          "name": "_router",
          "type": "address"
        }
      ],
      "stateMutability": "nonpayable",
      "type": "constructor"
    },
    {
      "inputs": [],
      "name": "USDC",
      "outputs": [
        {
          "internalType": "address",
          "name": "",
          "type": "address"
        }
      ],
      "stateMutability": "view",
      "type": "function"
    },
    {
      "inputs": [],
      "name": "USDT",
      "outputs": [
        {
          "internalType": "address",
          "name": "",
          "type": "address"
        }
      ],
      "stateMutability": "view",
      "type": "function"
    },
    {
      "inputs": [],
      "name": "WETH9",
      "outputs": [
        {
          "internalType": "address",
          "name": "",
          "type": "address"
        }
      ],
      "stateMutability": "view",
      "type": "function"
    },
    {
      "inputs": [
        {
          "internalType": "uint256",
          "name": "amountIn",
          "type": "uint256"
        },
        {
          "internalType": "uint256",
          "name": "amountOutMinimum",
          "type": "uint256"
        }
      ],
      "name": "exactInput",
      "outputs": [
        {
          "internalType": "uint256",
          "name": "amountOut",
          "type": "uint256"
        }
      ],
      "stateMutability": "nonpayable",
      "type": "function"
    },
    {
      "inputs": [
        {
          "internalType": "uint256",
          "name": "amountIn",
          "type": "uint256"
        },
        {
          "internalType": "uint256",
          "name": "amountOutMinimum",
          "type": "uint256"
        }
      ],
      "name": "exactInputSingle",
      "outputs": [
        {
          "internalType": "uint256",
          "name": "amountOut",
          "type": "uint256"
        }
      ],
      "stateMutability": "nonpayable",
      "type": "function"
    },
    {
      "inputs": [
        {
          "internalType": "uint256",
          "name": "amountOut",
          "type": "uint256"
        },
        {
          "internalType": "uint256",
          "name": "amountInMaximum",
          "type": "uint256"
        }
      ],
      "name": "exactOutput",
      "outputs": [
        {
          "internalType": "uint256",
          "name": "amountIn",
          "type": "uint256"
        }
      ],
      "stateMutability": "nonpayable",
      "type": "function"
    },
    {
      "inputs": [
        {
          "internalType": "uint256",
          "name": "amountOut",
          "type": "uint256"
        },
        {
          "internalType": "uint256",
          "name": "amountInMaximum",
          "type": "uint256"
        }
      ],
      "name": "exactOutputSingle",
      "outputs": [
        {
          "internalType": "uint256",
          "name": "amountIn",
          "type": "uint256"
        }
      ],
      "stateMutability": "nonpayable",
      "type": "function"
    },
    {
      "inputs": [],
      "name": "router",
      "outputs": [
        {
          "internalType": "contract ISwapRouter",
          "name": "",
          "type": "address"
        }
      ],
      "stateMutability": "view",
      "type": "function"
    }
  ],
  "bytecode": "0x60a060405234801561001057600080fd5b5060405161125638038061125683398101604081905261002f91610040565b6001600160a01b0316608052610070565b60006020828403121561005257600080fd5b81516001600160a01b038116811461006957600080fd5b9392505050565b6080516111856100d160003960008181610167015281816101c901528181610319015281816103e801528181610538015281816105e2015281816106760152818161073d015281816107e701528181610875015261093c01526111856000f3fe608060405234801561001057600080fd5b50600436106100885760003560e01c806389a302711161005b57806389a3027114610119578063c54e44eb14610134578063ca15ee471461014f578063f887ea401461016257600080fd5b8063151037d61461008d57806337be506a146100b35780634aa4a4fc146100c6578063814b3e9114610106575b600080fd5b6100a061009b366004610f17565b610189565b6040519081526020015b60405180910390f35b6100a06100c1366004610f17565b6103a8565b6100e17382af49447d8a07e3bd95bd0d56f35241523fbab181565b60405173ffffffffffffffffffffffffffffffffffffffff90911681526020016100aa565b6100a0610114366004610f17565b610638565b6100e173ff970a61a04b1ca14834a43f5de4533ebddb5cc881565b6100e173fd086bc7cd5c481dcc9c85ebe478a1c0b69fcbb981565b6100a061015d366004610f17565b610837565b6100e17f000000000000000000000000000000000000000000000000000000000000000081565b60006101ab73ff970a61a04b1ca14834a43f5de4533ebddb5cc83330866109ca565b600560016101ee73ff970a61a04b1ca14834a43f5de4533ebddb5cc87f000000000000000000000000000000000000000000000000000000000000000087610aac565b6040805160a0810182527fff970a61a04b1ca14834a43f5de4533ebddb5cc800000000000000000000000060c082015260f883901b7fff000000000000000000000000000000000000000000000000000000000000001660d4820181905260e885901b60d583018190527ffd086bc7cd5c481dcc9c85ebe478a1c0b69fcbb900000000000000000000000060d884015260ec83019190915260ed8201527f82af49447d8a07e3bd95bd0d56f35241523fbab100000000000000000000000060f0820152815160e48183030181526101048201835281523360208201524281830152606081018790526080810186905290517fc04b8d5900000000000000000000000000000000000000000000000000000000815273ffffffffffffffffffffffffffffffffffffffff7f0000000000000000000000000000000000000000000000000000000000000000169163c04b8d599161034d919060040161100e565b602060405180830381600087803b15801561036757600080fd5b505af115801561037b573d6000803e3d6000fd5b505050506040513d601f19601f8201168201806040525081019061039f9190611028565b95945050505050565b60006103ca7382af49447d8a07e3bd95bd0d56f35241523fbab13330856109ca565b6005600161040d7382af49447d8a07e3bd95bd0d56f35241523fbab17f000000000000000000000000000000000000000000000000000000000000000086610aac565b6040805160a0810182527fff970a61a04b1ca14834a43f5de4533ebddb5cc800000000000000000000000060c082015260f883901b7fff000000000000000000000000000000000000000000000000000000000000001660d4820181905260e885901b60d583018190527ffd086bc7cd5c481dcc9c85ebe478a1c0b69fcbb900000000000000000000000060d884015260ec83019190915260ed8201527f82af49447d8a07e3bd95bd0d56f35241523fbab100000000000000000000000060f0820152815160e48183030181526101048201835281523360208201524281830152606081018790526080810186905290517ff28c049800000000000000000000000000000000000000000000000000000000815273ffffffffffffffffffffffffffffffffffffffff7f0000000000000000000000000000000000000000000000000000000000000000169163f28c04989161056c919060040161100e565b602060405180830381600087803b15801561058657600080fd5b505af115801561059a573d6000803e3d6000fd5b505050506040513d601f19601f820116820180604052508101906105be9190611028565b925083831015610630576106087382af49447d8a07e3bd95bd0d56f35241523fbab17f00000000000000000000000000000000000000000000000000000000000000006000610aac565b6106307382af49447d8a07e3bd95bd0d56f35241523fbab13361062b8688611041565b610c47565b505092915050565b600061065a7382af49447d8a07e3bd95bd0d56f35241523fbab13330856109ca565b600561069b7382af49447d8a07e3bd95bd0d56f35241523fbab17f000000000000000000000000000000000000000000000000000000000000000085610aac565b60408051610100810182527382af49447d8a07e3bd95bd0d56f35241523fbab1815273ff970a61a04b1ca14834a43f5de4533ebddb5cc86020820152600283900b8183015233606082015242608082015260a0810186905260c08101859052600060e082015290517fc714e83800000000000000000000000000000000000000000000000000000000815273ffffffffffffffffffffffffffffffffffffffff7f0000000000000000000000000000000000000000000000000000000000000000169163c714e83891610771919060040161107f565b602060405180830381600087803b15801561078b57600080fd5b505af115801561079f573d6000803e3d6000fd5b505050506040513d601f19601f820116820180604052508101906107c39190611028565b9150828210156108305761080d7382af49447d8a07e3bd95bd0d56f35241523fbab17f00000000000000000000000000000000000000000000000000000000000000006000610aac565b6108307382af49447d8a07e3bd95bd0d56f35241523fbab13361062b8587611041565b5092915050565b600061085973ff970a61a04b1ca14834a43f5de4533ebddb5cc83330866109ca565b600561089a73ff970a61a04b1ca14834a43f5de4533ebddb5cc87f000000000000000000000000000000000000000000000000000000000000000086610aac565b604080516101008101825273ff970a61a04b1ca14834a43f5de4533ebddb5cc881527382af49447d8a07e3bd95bd0d56f35241523fbab16020820152600283900b8183015233606082015242608082015260a0810186905260c08101859052600060e082015290517fa026383e00000000000000000000000000000000000000000000000000000000815273ffffffffffffffffffffffffffffffffffffffff7f0000000000000000000000000000000000000000000000000000000000000000169163a026383e91610970919060040161107f565b602060405180830381600087803b15801561098a57600080fd5b505af115801561099e573d6000803e3d6000fd5b505050506040513d601f19601f820116820180604052508101906109c29190611028565b949350505050565b60405173ffffffffffffffffffffffffffffffffffffffff80851660248301528316604482015260648101829052610aa69085907f23b872dd00000000000000000000000000000000000000000000000000000000906084015b604080517fffffffffffffffffffffffffffffffffffffffffffffffffffffffffffffffe08184030181529190526020810180517bffffffffffffffffffffffffffffffffffffffffffffffffffffffff167fffffffff0000000000000000000000000000000000000000000000000000000090931692909217909152610c9d565b50505050565b801580610b5b57506040517fdd62ed3e00000000000000000000000000000000000000000000000000000000815230600482015273ffffffffffffffffffffffffffffffffffffffff838116602483015284169063dd62ed3e9060440160206040518083038186803b158015610b2157600080fd5b505afa158015610b35573d6000803e3d6000fd5b505050506040513d601f19601f82011682018060405250810190610b599190611028565b155b610bec576040517f08c379a000000000000000000000000000000000000000000000000000000000815260206004820152603660248201527f5361666545524332303a20617070726f76652066726f6d206e6f6e2d7a65726f60448201527f20746f206e6f6e2d7a65726f20616c6c6f77616e63650000000000000000000060648201526084015b60405180910390fd5b60405173ffffffffffffffffffffffffffffffffffffffff8316602482015260448101829052610c429084907f095ea7b30000000000000000000000000000000000000000000000000000000090606401610a24565b505050565b60405173ffffffffffffffffffffffffffffffffffffffff8316602482015260448101829052610c429084907fa9059cbb0000000000000000000000000000000000000000000000000000000090606401610a24565b6000610cff826040518060400160405280602081526020017f5361666545524332303a206c6f772d6c6576656c2063616c6c206661696c65648152508573ffffffffffffffffffffffffffffffffffffffff16610da99092919063ffffffff16565b805190915015610c425780806020019051810190610d1d91906110fe565b610c42576040517f08c379a000000000000000000000000000000000000000000000000000000000815260206004820152602a60248201527f5361666545524332303a204552433230206f7065726174696f6e20646964206e60448201527f6f742073756363656564000000000000000000000000000000000000000000006064820152608401610be3565b60606109c28484600085856000808673ffffffffffffffffffffffffffffffffffffffff168587604051610ddd9190611120565b60006040518083038185875af1925050503d8060008114610e1a576040519150601f19603f3d011682016040523d82523d6000602084013e610e1f565b606091505b5091509150610e3087838387610e3b565b979650505050505050565b60608315610ece578251610ec75773ffffffffffffffffffffffffffffffffffffffff85163b610ec7576040517f08c379a000000000000000000000000000000000000000000000000000000000815260206004820152601d60248201527f416464726573733a2063616c6c20746f206e6f6e2d636f6e74726163740000006044820152606401610be3565b50816109c2565b6109c28383815115610ee35781518083602001fd5b806040517f08c379a0000000000000000000000000000000000000000000000000000000008152600401610be3919061113c565b60008060408385031215610f2a57600080fd5b50508035926020909101359150565b60005b83811015610f54578181015183820152602001610f3c565b83811115610aa65750506000910152565b60008151808452610f7d816020860160208601610f39565b601f017fffffffffffffffffffffffffffffffffffffffffffffffffffffffffffffffe0169290920160200192915050565b6000815160a08452610fc460a0850182610f65565b905073ffffffffffffffffffffffffffffffffffffffff60208401511660208501526040830151604085015260608301516060850152608083015160808501528091505092915050565b6020815260006110216020830184610faf565b9392505050565b60006020828403121561103a57600080fd5b5051919050565b60008282101561107a577f4e487b7100000000000000000000000000000000000000000000000000000000600052601160045260246000fd5b500390565b61010081016110f8828473ffffffffffffffffffffffffffffffffffffffff808251168352806020830151166020840152604082015160020b60408401528060608301511660608401526080820151608084015260a082015160a084015260c082015160c08401528060e08301511660e0840152505050565b92915050565b60006020828403121561111057600080fd5b8151801515811461102157600080fd5b60008251611132818460208701610f39565b9190910192915050565b6020815260006110216020830184610f6556fea264697066735822122030b5f5879c9b030c5fe5a18cbcb816511577a39a7b9fa1fb000c45d79d2b6b1564736f6c63430008090033",
  "linkReferences": {},
  "deployedLinkReferences": {}
}